:020000040800F2
:10000000E018002029020008172500082F21000809
:1000100015250008DB040008012C00080000000082
:10002000000000000000000000000000472500085C
:10003000DD0400080000000019250008492500081B
:10004000430200084302000843020008430200087C
:10005000430200084302000843020008430200086C
:10006000430200084302000843020008430200085C
:10007000430200084302000843020008430200084C
:10008000430200084302000843020008430200083C
:10009000430200084302000843020008430200082C
:1000A000430200084302000843020008430200081C
:1000B000430200084302000843020008430200080C
:1000C0004302000843020008430200081D250008FF
:1000D00029250008BD2B0008C92B0008D52B0008D6
:1000E00043020008430200084302000843020008DC
:1000F0004302000843020008000000000000000066
:100100000000000000000000430200084302000855
:100110000000000000000000430200084302000845
:10012000430200084302000843020008430200089B
:10013000430200084302000843020008430200088B
:100140004302000800000000000000000000000062
:10015000000000000000000000000000000000009F
:1001600000000000000000004302000843020008F5
:1001700043020008000000004302000800000000E5
:10018000000000004302000800F002F800F03CF814
:100190000AA090E8000C82448344AAF10107DA45E2
:1001A00001D100F031F8AFF2090EBAE80F0013F0F8
:1001B000010F18BFFB1A43F001031847082B00007A
:1001C000282B0000103A24BF78C878C1FAD852070B
:1001D00024BF30C830C144BF04680C6070470000C1
:1001E0000023002400250026103A28BF78C1FBD840
:1001F000520728BF30C148BF0B6070471FB502F0DF
:100200003FFD1FBD10B510BD00F001F91146FFF70D
:10021000F5FF02F007FD00F01FF903B4FFF7F2FF4E
:1002200003BC00F027F9000009488047094800474F
:10023000FEE7FEE7FEE7FEE7FEE7FEE7FEE7FEE796
:10024000FEE7FEE704480549054A064B70470000F3
:10025000DD25000889010008E0060020E0180020E4
:10026000E0080020E008002053EA020C00F069805A
:100270002DE9F04B4FF00006002B1FBFB3FA83F5BA
:1002800003FA05F424FA05F65E4012BF1643B2FAEB
:1002900082F502FA05F4C5F120051EBF22FA05FC1D
:1002A00044EA0C04203556EA044C4FEA144418BFC3
:1002B000641C4FF000084FF00009904271EB030CF2
:1002C00039D3002919BFB1FA81F701FA07F6B0FA5C
:1002D00080F700FA07F6C7F120071EBF20FA07FCD7
:1002E00046EA0C062037B6FBF4FCA7EB0507103FE7
:1002F00007F01F0BCBF120060CFA0BFB2CFA06F6CD
:1003000044BFB3460026202FA4BF5E464FF0000B2B
:100310005BEA060C08BF4FF0010B19EB0B09ABFBB6
:10032000027C48EB0608C01B06FB02CC0BFB03CC8F
:1003300071EB0C01C1E70B46024641464846BDE859
:10034000F08B13B54FF000004FF00001AFF30080C9
:10035000BDE81C40704710B5203AC0F00B80B1E8F2
:100360001850203AA0E81850B1E81850A0E81850EA
:10037000BFF4F5AF5FEA027C24BFB1E81850A0E8F3
:10038000185044BF18C918C0BDE810405FEA827C0D
:1003900024BF51F8043B40F8043B08BF7047D20724
:1003A00028BF31F8023B48BF11F8012B28BF20F8C5
:1003B000023B48BF00F8012B70474FF0000200B528
:1003C000134694469646203922BFA0E80C50A0E878
:1003D0000C50B1F12001BFF4F7AF090728BFA0E826
:1003E0000C5048BF0CC05DF804EB890028BF40F8F2
:1003F000042B08BF704748BF20F8022B11F0804F34
:1004000018BF00F8012B704770477047704775465A
:1004100000F02CF8AE4605006946534620F0070070
:10042000854618B020B5FFF70DFFBDE820404FF01E
:1004300000064FF000074FF000084FF0000B21F0CE
:100440000701AC46ACE8C009ACE8C009ACE8C0099B
:10045000ACE8C0098D46704710B50446AFF3008084
:100460002046BDE81040FFF7D8BE000000487047A6
:100470008006002001491820ABBEFEE726000200DE
:100480007047000070B5044600688168C943C90719
:1004900017D1816821F00101816000F08FFA0546D3
:1004A0000AE000BF00F08AFA401B022804D9206845
:1004B0008068C043C00706D020688068C043C0077A
:1004C000F0D0002070BDA06A40F01000A062E06A89
:1004D00040F00100E062012070BDFEE770470000BF
:1004E000F8B50024009490F824202546012A12D063
:1004F000012280F824204A681F23072A0DD20668AB
:10050000776B521E02EB820293409F430B6893402D
:100510001F43776319E00220F8BD06680D2A0AD24E
:10052000376BD21F02EB820293409F430B689340CC
:100530001F43376309E0F76A0D3A02EB82029340EA
:100540009F430B6893401F43F7620A6807230668BE
:100550000A2A0AD9F7680A3A02EB420293409F43FB
:100560008B6893401F43F76008E0376902EB420253
:1005700093409F438B6893401F4337610A68102A5A
:1005800004D0112A02D0122A16D01AE00268936809
:1005900043F4000393600968102912D10B490C4AF7
:1005A0000968B1FBF2F101EB8101490000E0491E4D
:1005B00000910029FBD104E006490A6842F08072EC
:1005C0000A6080F824502046F8BD00000C0000208E
:1005D00040420F00000001402DE9F0414FF00007BC
:1005E00004003D467ED0A06A002628B9E66284F861
:1005F0002460204600F07EF82046FFF743FFA16A02
:10060000C90600D420B1A06A40F01000A06269E0E1
:10061000A16A21F4885141F00201A1626268E16996
:10062000237B0A4347EA43010A43A1684FF48077DA
:10063000B94209D0012907D05FF0000194F814C035
:10064000BCF1010F02D00AE03946F7E7F3B1A36A23
:1006500043F02003A362E36A43F00103E3622368EB
:10066000D3F804C02CF4694C4CEA010CC3F804C064
:1006700021688B68DFF870C003EA0C0313438B60BA
:10068000A168B9420BD0012909D00CE0DFF85CC0A9
:10069000A3690CEB43330B4343F40061DFE7218A8A
:1006A0000D05A5F580152168CB6A23F470032B4353
:1006B000CB62216889680E4B1940914208D1E662ED
:1006C000A16A21F0020141F00101A162BDE8F081BF
:1006D000A06A20F0020040F01000A062E06A40F042
:1006E0000100E0620120F1E7FDF7E1FF00E0FFFF1C
:1006F000FE0E1FFF10B586B0044614216846FFF7B2
:100700005CFE1149206888421BD11048816941F480
:1007100000718161816901F400710591416941F4C1
:10072000003141614069694600F400300590FF20C6
:10073000009003200190002002904FF0904000F0C4
:100740004FF806B010BD0000002401400010024028
:1007500010B590F821100022022905D004218163F0
:1007600080F82020012010BD01680B6823F00E03E3
:100770000B6001680B6823F001030B6090F84030B8
:10078000C46B012101FA03F3636080F8211080F843
:100790002020002010BD10B590F82110002402295F
:1007A00003D004218163012418E001680A6822F063
:1007B0000E020A6001680A6822F001020A6090F8DD
:1007C0004020C36B012101FA02F25A6080F8211027
:1007D000002180F82010416B01B18847204610BDF0
:1007E0002DE9F04FDFF8AC9100230325A9F1040BAC
:1007F00085B04FF0010C0F2709F1040AABF1040E8C
:10080000BFE000BF0CFA03F6324075D00C7904F05B
:100810000304012C01D0022C1BD1846800945C00DD
:1008200005FA04F80494009C24EA08040094D1F822
:100830000C80049C08FA04F8009C48EA0408C0F8FC
:1008400008804468B4430E79C6F300169E402643E0
:1008500046600C79E443A4070AD0C4684FEA430811
:1008600005FA08F6B4438E6806FA08F62643C66011
:100870000C7904F00304022C10D1DC0800EB840492
:100880000294246A5E074FEAD66807FA08F6B44372
:100890000E6906FA08F62643029C266204684FEAAF
:1008A000430805FA08F6B4430E7906F0030606FA83
:1008B00008F6264306604C6814F4403F60D0364C7E
:1008C000A66946F00106A661A46923F0030604F0B8
:1008D00001040094314C34440294A4689E074FEA0A
:1008E000167807FA08F6B443B0F1904F05D02C4EB5
:1008F000B04204D1012612E042E000260FE0294E6A
:10090000B04201D102260AE0274EB04201D10326AF
:1009100005E0264EB04201D1042600E0052606FA85
:1009200008F62643029CA660D9F800604C46D1F830
:10093000048096435FEAC82800D516432660DAF89B
:1009400000405646D1F8048094435FEA882800D5D9
:1009500014433460DBF800405E46D1F804809443D1
:100960005FEA883800D514433460DEF800407646EC
:10097000D1F8048094435FEAC83800D5144334604A
:100980005B1C0A6832FA03F47FF43CAF05B0BDE8A3
:10099000F08F0000080401400010024000000140F8
:1009A0000004004800080048000C004800100048FF
:1009B0000AB1816170478162704700000148806818
:1009C000704700000000002090F84120202A24D128
:1009D00090F84020012A20D0012280F840202422D3
:1009E00080F841200268136823F001031360026855
:1009F000136823F480531360026813680B43136079
:100A000001680A6842F001020A60202180F8411062
:100A1000002180F84010084670470220704790F887
:100A20004120202A22D190F84020012A1ED0012204
:100A300080F84020242280F841200268136823F0C7
:100A4000010313600268136823F4706343EA012111
:100A5000116001680A6842F001020A60202180F8F2
:100A60004110002180F8401008467047022070476E
:100A700070B5040004D094F84100002510B106E0E0
:100A8000012070BD84F84050204600F04DF824202D
:100A900084F841002068016821F00101016060686C
:100AA000216820F0706008612068816821F40041AD
:100AB0008160E0680128A06807D040F40440216804
:100AC0008860E068022803D006E040F40040F6E7C2
:100AD00021684FF40060486020684168114A114362
:100AE00041602068C16821F40041C160D4E904017B
:100AF0000843A16940EA01202168C860D4E90701E0
:100B00000843216808602068016841F00101016024
:100B10006564202084F84100256384F84250002059
:100B200070BD0000008000022DE9F04186B004464F
:100B300014216846FFF741FC2A4A216800252A4C07
:100B400012200326042791422CD1616941F400311F
:100B50006161616901F400310591616941F48021AD
:100B600061616169804601F480210591D113CDE96D
:100B7000001002AA694682E8E0008006FFF730FE16
:100B80008020CDE9000802AA694682E8E000174803
:100B9000FFF726FEE06940F40010E061E06900F430
:100BA00000101BE0124A914219D1616941F48001A1
:100BB0006161616902AA01F480010591C021CDE95A
:100BC000001082E8E00069460A48FFF709FEE06984
:100BD00040F48000E061E06900F48000059006B018
:100BE000BDE8F081005400400010024000040048BD
:100BF00000580040001400480248816802781144FF
:100C00008160704700000020074810B5016841F07E
:100C100010010160032000F06DF80F2000F006F8CD
:100C200000F024F8002010BD0020024070B50D4DEA
:100C300004464FF47A712878B1FBF0F00A4909684C
:100C4000B1FBF0F000F02CFF48B9102C07D20022C5
:100C50002146501E00F02EF800206C6070BD01206F
:100C600070BD0000000000200C000020094808B5FD
:100C7000816941F001018161816901F00101009107
:100C8000C16941F08051C161C06900F0805000909D
:100C900008BD000000100240002809DB00F01F0220
:100CA000012191404009800000F1E020C0F80011CE
:100CB00070470000F0B40E4B1B680C46C3F30223D0
:100CC000C3F10705042D00D90425191D072901D2F8
:100CD000002300E0DB1E012606FA05F1491E214033
:100CE00099409E40761E16403143F0BC01F089BF0A
:100CF0000CED00E0064900F0070208684FF6FF031C
:100D0000184040EA0220034A104308607047000080
:100D10000CED00E00000FA0570B586B0040004D0C8
:100D200094F8A902002518B107E0012006B070BDB3
:100D300084F8A852204600F043F8032084F8A90262
:100D4000206801F056FF002001260DE000EB800135
:100D500004EBC10181F8296001F8280F401CCD7017
:100D60000D614D61C0B28D6161688142EED8002095
:100D700012E000BF00EB800104EBC10181F8695172
:100D800081F8680181F86B51C1F87851C1F87C5144
:100D9000401CC0B2C1F8805161688142EAD8142277
:100DA00004F110016846FFF7D6FA94E80F0001F04D
:100DB00017FF84F8245084F8A9620020B6E70000E9
:100DC00010B586B0044614216846FFF7F6FA1349B9
:100DD0002068884220D1124C606940F40030606184
:100DE0006069694600F4003005904FF4C0500090EF
:100DF0000220019000200290032003900E20049016
:100E00004FF09040FFF7ECFCE06940F40000E06137
:100E1000E06900F40000059006B010BD005C0040E1
:100E2000001002402DE9F84F0546006800266E4C80
:100E3000C0036ED5E069C00008D4E06940F080507E
:100E4000E061E069012600F0805000906748016889
:100E5000C90512D40168804641F480710160FFF732
:100E6000ADFD074605E000BFFFF7A8FDC01B6428E5
:100E700035D8D8F80000C005F6D5206A10F44070C7
:100E800053D0A98801F4407181424ED0206A4FF4BA
:100E9000803191FAA1F2B2FA82F29700544A4FF0EF
:100EA0000108174420F44070C7F8008491FAA1F1BA
:100EB000B1FA81F102EB81010023C1F80034206214
:100EC000C00732D0FFF77AFD074641F2883A4FF06B
:100ED000020907E0FFF772FDC11B514502D903204B
:100EE000BDE8F88F99FAA9F1B1FA81F141F040011A
:100EF0004846B8EB511F01D121680CE090FAA0F1EF
:100F0000B1FA81F141F04001B0EB511F02D1216AE9
:100F100001E015E0616A99FAA9F0B0FA80F000F0FA
:100F20001F0008FA00F21142D4D0206A696820F448
:100F30004070084320621EB1E06920F08050E061FB
:100F40002878C00705D0206BA96820F0030008436B
:100F500020632878800705D5206BE96820F44030AD
:100F6000084320632878400705D5206B296920F4C1
:100F70004020084320632878800605D5206B6969E6
:100F800020F01000084320632868800305D56068BE
:100F9000A96A20F48000084360602878400605D5DF
:100FA000206BA96920F02000084320632878000600
:100FB00005D56068E96920F44040084360602888EE
:100FC000000505D56068296A20F078400843606014
:100FD0002888400505D5206B696A20F04000084349
:100FE000206300207CE700000010024000700040F9
:100FF000000042422DE9F0470F46050069D04A4EF5
:10100000306800F00700B84209D2306820F00700CD
:1010100038433060306800F00700B84259D1287872
:10102000424C800705D56068A96820F0F0000843AD
:1010300060602878C0073DD06968012001290DD083
:10104000022923D05FF0020393FAA3F2B2FA82F2EC
:1010500042F02002520904D0226803E04FF400332A
:10106000F2E7626A93FAA3F3B3FA83F303F01F0380
:10107000984002422DD0606820F003000843606071
:10108000FFF79CFC804641F288390CE04FF000737A
:10109000DAE700BFFFF792FCA0EB0801494502D94F
:1010A0000320BDE8F0876068696800F00C00B0EBD1
:1010B000810FEFD1306800F00700B8420BD93068DB
:1010C00020F0070038433060306800F00700B84275
:1010D00001D00120E5E72878400705D56068E96878
:1010E00020F4E060084360602878000706D5606857
:1010F000296920F4605040EAC100606000F04EF8B9
:101100006168F02292FAA2F201F0F001B2FA82F2E2
:10111000D140074A515CC84006490860064800684B
:10112000FFF784FD0020BCE70020024000100240D1
:10113000AA2C00080C0000200400002008480949DF
:10114000006849684FF4E06292FAA2F201F4E061AB
:10115000B2FA82F2D140044A515CC84070470000A4
:101160000C00002000100240BA2C00080848094971
:10117000006849684FF4605292FAA2F201F460519B
:10118000B2FA82F2D140044A515CC8407047000074
:101190000C00002000100240BA2C0008174A10B5BD
:1011A0005168174801F00C03042B02D0082B01D022
:1011B000401010BD4FF4701494FAA4F401F47013AD
:1011C000B4FA84F4E3400F4CD26AE45C0F2393FA40
:1011D000A3F302F00F02B3FA83F3DA40094B1033A2
:1011E000C9039A5C06D500231946FFF73DF8A0FB1A
:1011F000040110BD0448A4FB000110BD0010024012
:101200000024F4008A2C000800093D002DE9F84F65
:10121000050071D02878FC4EC0074FF0010425D09E
:1012200070686704C0F38100012807D07068C0F3BC
:10123000810002281BD17068C00318D597FAA7F067
:10124000B0FA80F040F02000400901D0306800E0A2
:10125000706A97FAA7F1B1FA81F101F01F0104FA5F
:1012600001F1084265D068680028D2D061E0686862
:10127000B0F5803F0BD010B1B0F5A02F17D030687B
:1012800020F480303060306820F4802002E0306844
:1012900040F480303060F06AA96820F00F00084305
:1012A000F062686820B3FFF789FB80460AE0306887
:1012B00040F480203060EAE7FFF780FBA0EB0800F5
:1012C000642871D897FAA7F0B0FA80F040F02000B7
:1012D000400901D0306800E0706A97FAA7F1B1FACE
:1012E00081F101F01F0104FA01F10842E4D020E08D
:1012F000FFF764FB804607E0C2E000BFFFF75EFB3C
:10130000A0EB08006428DCD897FAA7F0B0FA80F0C8
:1013100040F02000400901D0306800E0706A97FA80
:10132000A7F1B1FA81F101F01F0104FA01F10842BD
:10133000E4D12878DFF8D48280074FF0000A4FF01C
:10134000020730D570684FF0F80B10F00C0F07D083
:101350007068C0F38100022827D17068C00324D4CC
:1013600097FAA7F0B0FA80F040F02000400901D0D1
:10137000306800E0706A97FAA7F1B1FA81F101F0E4
:101380001F0104FA01F1084202D02869012877D12F
:1013900030689BFAABF220F0F8016869B2FA82F289
:1013A0009040014331605AE064E1286988B394FABF
:1013B000A4F0B0FA80F048F82040FFF7FFFA814629
:1013C00006E000BFFFF7FAFAA0EB090002289AD85E
:1013D00097FAA7F0B0FA80F040F02000400901D061
:1013E000306800E0706A97FAA7F1B1FA81F101F074
:1013F0001F0104FA01F10842E4D030689BFAABF215
:101400006969B2FA82F220F0F80091400843306036
:1014100025E0FFE794FAA4F0B0FA80F048F820A0A5
:10142000FFF7CCFA814605E0FFF7C8FAA0EB090008
:101430000228CCD897FAA7F0B0FA80F040F020004C
:10144000400901D0306800E0706A97FAA7F1B1FA5C
:1014500081F101F01F0104FA01F10842E4D128787A
:1014600000076CD5A869A8B394FAA4F0B0FA80F08C
:1014700008EB8000C0F88044FFF7A0FA814607E03F
:10148000A4E100BFFFF79AFAA0EB090002289ED85A
:1014900097FAA7F0B0FA80F040F06000B4EB501F6C
:1014A00001D130680BE097FAA7F0B0FA80F040F075
:1014B0006000B7EB501F01D1306A00E0706A97FA04
:1014C000A7F1B1FA81F101F01F0104FA01F2104213
:1014D000D8D034E0FFE794FAA4F1B1FA81F108EB37
:1014E0008101C1F880A4FFF769FA814606E000BFD8
:1014F000FFF764FAA0EB090002289AD897FAA7F040
:10150000B0FA80F040F06000B4EB501F01D13068B9
:101510000BE097FAA7F0B0FA80F040F06000B7EB6C
:10152000501F01D1306A00E0706A97FAA7F1B1FA52
:1015300081F101F01F0104FA01F21042D8D128789C
:10154000400768D5F0694FF00009C00009D4F06980
:1015500040F08050F061F0694FF0010900F08050D8
:1015600000902B480168C90512D4016841F48071CC
:101570000160FFF723FA834606E000BFFFF71EFA7B
:10158000A0EB0B00642875D821480068C005F5D58C
:10159000E86801280AD008B1052811D0306A20F087
:1015A00001003062306A20F0040002E0306A40F04E
:1015B00001003062E86868B3FFF700FA83460DE087
:1015C000306A40F004003062F0E700BFFFF7F6F940
:1015D000A0EB0B0141F2883081424BD897FAA7F07B
:1015E000B0FA80F040F04000B4EB501F01D13068F9
:1015F00013E097FAA7F0B0FA80F040F04000B7EBA4
:10160000501F09D1306A08E0001002400000424239
:10161000007000400CE040E0706A97FAA7F1B1FA60
:1016200081F101F01F0104FA01F21042CED02DE049
:10163000FFF7C4F9834607E0FFF7C0F9A0EB0B0101
:1016400041F28830814215D897FAA7F0B0FA80F0BD
:1016500040F04000B4EB501F01D130680CE097FA25
:10166000A7F0B0FA80F040F04000B7EB501F02D175
:10167000306A01E083E0706A97FAA7F1B1FA81F16C
:1016800001F01F0104FA01F21042D5D1B9F1000FA7
:1016900003D0F06920F08050F061E86980B3716890
:1016A000C1F38101022977D04FF080714F000228E9
:1016B000504609D091FAA1F1B1FA81F148F8210020
:1016C000FFF77CF905465DE0894691FAA1F1B1FA90
:1016D00081F1C24648F82100FFF770F9804605E025
:1016E000FFF76CF9A0EB0800022848D897FAA7F09A
:1016F000B0FA80F040F02000400902D0306801E0EC
:1017000066E0706A97FAA7F1B1FA81F101F01F0162
:1017100004FA01F10842E3D1D5E9081008437168E1
:1017200021F474110843706099FAA9F0B0FA80F0BE
:101730004AF82040FFF742F9054604E0FFF73EF97A
:10174000401B02281BD897FAA7F0B0FA80F040F0AF
:101750002000400901D0306800E0706A97FAA7F1D4
:10176000B1FA81F101F01F0104FA01F10842E5D05C
:101770002EE000BFFFF722F9401B022802D9032008
:10178000BDE8F88F97FAA7F0B0FA80F040F020009B
:10179000400902D0306801E00BE0706A97FAA7F1C7
:1017A000B1FA81F101F01F0104FA01F10842E1D11F
:1017B0000EE00128E4D070682A6A00F4803191427A
:1017C00004D1696A00F47010884201D00120D7E783
:1017D0000020D5E77047000038B5016804464A6824
:1017E0008868C043430606D5C30704D1D3435B06CC
:1017F00001D4E16C05E0830708D4D3431B0605D46C
:10180000216D01B02046BDE830400847830603D56E
:10181000430601D5C30551D4D3439B064ED443069A
:101820000AD494F85D30032B49D0236E43F00403AF
:101830002366CB688B680093830609D4236E43F03C
:10184000010323668B6800930B6823F040030B6051
:10185000C00506D4206E40F008002066206880682D
:101860000090206E002829D02068416821F0E00116
:101870004160012084F85D00900701D4D00722D098
:101880002068416821F003014160114DA06D40B115
:101890004563A06DFEF77FFF18B1206E40F0400059
:1018A0002066606D002809D04563606DFEF773FF08
:1018B000002803D0206E40F04000206638BDC86884
:1018C0008868009038BD2046FFF784FF38BD0000CF
:1018D0003525000870B5040009D0606A002540B1C4
:1018E00025616561A56294F85D0040B10CE00120BE
:1018F00070BD6068B0F5827FF4D0E561F2E784F8EE
:101900005C50204600F05CF8022084F85D002068FE
:10191000016821F040010160E1684FF4E06291420A
:1019200001D9002001E04FF48050B1F5706F02D072
:10193000914200D0A562A188228901F4827102F44B
:1019400004421143227C02F002021143227D02F084
:1019500001021143228B02F400721143227F02F034
:101960003802114394F8202002F080021143228DA6
:1019700002F40052114322681160A169042202EAB4
:10198000114194F8242000F4805002F01002114319
:1019900094F8342002F008021143A28902F4706224
:1019A00011430143206841602068C16921F400614E
:1019B000C1612566012084F85D00002070BD000033
:1019C000F0B587B0044614216846FEF7F6FC2E4AAF
:1019D000216800252D4802240326052791421ED1A7
:1019E000816941F480518161816901F480510591DF
:1019F000416941F4002141614069694600F40020D9
:101A000005904FF470708DE8F1002148FEF7E8FE74
:101A1000002211462320FFF74DF9232030E01D4A14
:101A200091422FD1C16941F48041C161C16901F482
:101A300080410591416941F480214161416901F48E
:101A400080210591416941F48011416140696946F5
:101A500000F4801005904FF442408DE8F1000E48EC
:101A6000FEF7BEFE4FF480708DE8F10069460B482A
:101A7000FEF7B6FE002211462420FFF71BF92420B2
:101A8000FFF70AF907B0F0BD003001400010024036
:101A9000000800480038004000040048000C0048DE
:101AA00010B5401EB0F1807F01D3012010BD4FF072
:101AB000E02460610F21601701F0A3F80020A0610D
:101AC00007202061002010BD70B590F83C20012A4D
:101AD0002FD0012480F83C40022280F83D2003688A
:101AE0005A689D6822F070060A6832435A6002689C
:101AF000B2F1804F11D0104B9A420ED00F4B9A4248
:101B00000BD00F4B9A4208D00E4B9A4205D00E4B89
:101B10009A4202D00D4B9A4204D1496825F08003C5
:101B20001943916080F83D40002180F83C10084640
:101B300070BD022070BD000000040040000800409D
:101B4000000C00400018004000400140005C0140D3
:101B500010B586B0044614216846FEF72EFC0D49E8
:101B60002068884214D10C48416941F40021416148
:101B70004069002100F4002005900F200090022011
:101B8000CDE90101CDE9031069460448FEF728FEBE
:101B900006B010BD000C00400010024000080048D4
:101BA00070B5044690F83C0000260D4601280FD081
:101BB000012084F83C006AB1042A1DD0082A2FD0E5
:101BC0000C2A3FD00126002084F83C00304670BD2E
:101BD000022070BD206800F06DFD2068816941F031
:101BE000080181612068816921F004018161206818
:101BF00081692A69114311E0206800F093FD206893
:101C0000816941F4006181612068816921F480610A
:101C10008161206881692A6941EA02218161D2E7F4
:101C2000206800F0AFFD2068C16941F00801C16182
:101C30002068C16921F00401C1612068C1692A6975
:101C4000114311E0206800F0B4FD2068C16941F43F
:101C50000061C1612068C16921F48061C1612068AF
:101C6000C1692A6941EA0221C161ACE710B50400EB
:101C700003D094F83D0010B107E0012010BD002012
:101C800084F83C00204600F01FF8022084F83D0054
:101C9000211D206800F0AAFC012084F8480084F887
:101CA0003E0084F83F0084F8400084F8410084F846
:101CB000440084F8450084F8460084F8470084F81E
:101CC0003D00002010BD000008B5006806498842AC
:101CD00008D10648C16941F00801C161C06900F03E
:101CE0000800009008BD0000000C004000100240F9
:101CF00070477047704700002DE9F04102680446C4
:101D0000D0691168936840F60F0528424FF000052E
:101D10004FF0020605D187067ED58F067CD5A16ED1
:101D20002AE1DFF884C203F0010701EA0C0C57EA4C
:101D30000C0C71D05FEAC07C0CD05FEAC15C09D5A5
:101D40004FF0010CC2F820C0D4F8842042F0010208
:101D5000C4F88420820709D5DA0707D02268166202
:101D6000D4F8842042F00402C4F8842042070AD543
:101D7000DA0708D0236804221A62D4F8842042F0DB
:101D80000202C4F8842002070CD501F020023A4375
:101D900008D0236808221A62D4F8842042F008028E
:101DA000C4F8842002050BD54A0109D523684FF4F5
:101DB00000621A62D4F8842042F02002C4F8842021
:101DC000D4F88420002A36D0800605D5880603D5AD
:101DD000A16E09B120468847D4F88400216889683B
:101DE000490602D410F0280F27D0204600F0BBFD92
:101DF0002068806840061BD52068083050E8001F26
:101E000021F0400140E80012002AF5D1606F78B15E
:101E100066494163606F00E015E0FEF7BCFC0028F6
:101E200009D0606F416B00E02046BDE8F0410847F3
:101E30002046FFF75FFFBDE8F0812046FFF75AFF1D
:101E4000C4F88450F7E7D4F860C02027BCF1010F34
:101E50007DD15FEAC06C7ED55FEAC16C7BD5102076
:101E6000106220688068400642D5616F086840684B
:101E70000004000CDFD0B4F858208242DBD9A4F86B
:101E80005A00886920282BD0216851E8000F20F4DF
:101E9000807041E80002002AF6D12068083050E83E
:101EA000001F21F0010140E80012002AF5D120684E
:101EB000083050E8001F21F0400140E80012002ADD
:101EC000F5D1C4F880702566206850E8001F21F025
:101ED000100140E80012002AF6D1606FFEF738FCCE
:101EE0006666B4F85800B4F85A10401A81B22CE073
:101EF000B4F85800B4F85A10401A81B2B4F85A0035
:101F0000002898D0002996D0226852E8000F20F4CB
:101F1000907042E80003002BF6D12068083050E8AA
:101F2000002F22F0010240E80023002BF5D1C4F875
:101F300080702566A566206850E8002F22F0100208
:101F400040E80023002BF6D16666204600E002E060
:101F5000FFF7CEFE6FE7C60209D55B0207D54FF447
:101F6000801010622046BDE8F041FFF7C2BE0206B5
:101F700006D50A0604D5E16E00297FF455AF5AE76D
:101F80004006E7D54806E5D52046026852E8001F1E
:101F900021F0400142E80013002BF6D1C767C56667
:101FA00000F0C4F847E700002001000453290008AE
:101FB00010B5040002D0E06F10B107E0012010BDA1
:101FC000002084F87800204600F026F82420E067FE
:101FD0002068016821F001010160204600F0EAFC60
:101FE0000128ECD0606A10B1204600F0FAFB2068AE
:101FF000416821F4904141602068816821F02A0104
:1020000081602068016841F0010101602046BDE85F
:10201000104000F04ABC000070B586B004461421A0
:102020006846FEF7CAF93B4E256800213A4802226D
:1020300003230724B54221D1856945F48045856194
:10204000856905F480450595456945F40035456188
:10205000406902AD00F40030059085E81A0058028E
:10206000CDE9000269464FF09040FEF7B9FB00222F
:1020700011462520FEF71EFE252022E0274EB54200
:1020800023D1C56945F40035C561C56905F400353E
:102090000595456945F480254561406902AD00F428
:1020A0008020059085E81A001820CDE900026946D5
:1020B0001B48FEF795FB002211462620FEF7FAFD8D
:1020C0002620FEF7E9FD06B070BD164EB542FAD1E6
:1020D000C56945F48025C561C56905F48025059568
:1020E000456945F400254561406902AD00F40020D2
:1020F000059085E81A004FF44060CDE9000269467A
:102100000948FEF76DFB002211462720FEF7D2FD9D
:102110002720D6E70038014000100240004400406C
:102120000004004800480040000800487047FEE7EF
:102130003EB5002410480094019402940D49846037
:10214000016004730475012505614FF4602144604A
:10215000C161FEF741FA08B172B6FEE7CDE900456C
:10216000694605480294FEF7BBF9002801D072B613
:10217000FEE73EBD00240140100000202DE9F0479D
:1021800086B014216846FEF718F93D48416941F4CC
:1021900000214161416901F400210591416941F447
:1021A00080014161416901F480010591416941F477
:1021B00000314161416901F400310591416941F407
:1021C00080214161416901F480210591416941F417
:1021D00000114161416901F400110591416941F427
:1021E000801141614069DFF89C8000F480104FF459
:1021F00000540590002221464046FEF7D9FBDFF847
:10220000889040F26316002231464846FEF7D0FB24
:10221000DFF878A04FF44077002239465046FEF7A9
:10222000C7FB0125CDE900450024029469464046DC
:102230000394FEF7D5FA3020CDE900046946404604
:102240000294FEF7CDFA0096CDE90154694648465E
:102250000394FEF7C5FA0097CDE90154694650464C
:102260000394FEF7BDFA2802CDE9000469464FF059
:1022700090400294FEF7B4FA06B0BDE8F087000083
:102280000010024000080048000400480010004808
:10229000124810B510490160114941600021012226
:1022A000C0E90212016141618161C1610162FEF711
:1022B000DFFB08B172B6FEE700210848FEF784FB99
:1022C00008B172B6FEE700210448FEF7A8FB00281B
:1022D00001D072B6FEE710BD00540040400000205F
:1022E0000E090020124810B51049016011494160E3
:1022F00000210122C0E90212016141618161C161D5
:102300000162FEF7B5FB08B172B6FEE7002108488E
:10231000FEF75AFB08B172B6FEE700210448FEF74B
:102320007EFB002801D072B6FEE710BD00580040C9
:10233000940000200E090020114810B50F490160DB
:102340004FF48271416000214FF4E062C0E9021253
:102350004FF480220161C0E905121822C0E907216B
:1023600007224162C0E90A12016308214163FFF7B5
:10237000B1FA002801D072B6FEE710BD003001406E
:10238000E8000020114810B50F4901604FF4827138
:10239000416000214FF4E062C0E902124FF4802254
:1023A0000161C0E905121022C0E90721072241623C
:1023B000C0E90A12016308214163FFF78BFA002884
:1023C00001D072B6FEE710BD003800404C0100207D
:1023D00010B58AB0002407941C2168460894FDF7C4
:1023E000ECFF21481F49C0E90014611EC0E9024109
:1023F00004618461FFF73AFC08B172B6FEE7079406
:1024000007A919480894FFF75FFB08B172B6FEE709
:102410006020CDE900040294002269461248049429
:10242000FFF7BEFB08B172B6FEE7042269460E480C
:10243000FFF7B6FB08B172B6FEE7082269460A4804
:10244000FFF7AEFB08B172B6FEE70C2269460648FC
:10245000FFF7A6FB08B172B6FEE70348FFF778FB6B
:102460000AB010BD000C0040B00100200C4810B5AF
:102470000A4901604FF4E1314160002181600C2282
:10248000C160C0E904128161C16101624162FFF76C
:102490008FFD002801D072B6FEE710BD0038014064
:1024A000FC0100200C4810B50A4901604FF4E131ED
:1024B0004160002181600C22C160C0E90412816189
:1024C000C16101624162FFF773FD002801D072B65D
:1024D000FEE710BD00440040840200200C4810B507
:1024E0000A4901604FF4E1314160002181600C2212
:1024F000C160C0E904128161C16101624162FFF7FC
:1025000057FD002801D072B6FEE710BD004800401C
:102510000C030020FEE7FEE7704700000148FFF7CC
:102520005BB90000E80000200148FFF755B9000042
:102530004C01002010B5406A0021A0F84610C18768
:10254000FFF748F910BD7047FEF756BB10B59AB0BB
:1025500028210BA8FDF731FF142115A8FDF72DFF49
:102560002C216846FDF729FF03200B9001214FF431
:102570008030CDE90C010224CDE912400F914FF4D7
:10258000E0101021149010910BA8FEF73FFE08B147
:1025900072B6FEE70F20CDE9150400244FF48060E9
:1025A000CDE91740022115A81994FEF723FD08B1C3
:1025B00072B6FEE7059408480A94029400900394CA
:1025C0000494069407946846FEF72CFC002801D07A
:1025D00072B6FEE71AB010BDE700020002480168BB
:1025E00041F470010160704788ED00E02DE9F0478B
:1025F00002684FF0804A254D254E264FDFF898C0DF
:10260000264B274CDFF89C90504507D0A84205D0B8
:10261000B04203D0B84201D0604506D122F0700824
:102620004A68504542EA080216D0A84214D0B04287
:1026300012D0B84210D01C4DA8420DD01B4DA8425C
:102640000AD01B4DA84207D0984205D0A04203D023
:10265000484501D0604503D122F44075CA682A4339
:102660004D6922F080022A4302608A68C2620A68C9
:102670008262984203D0A04201D0484501D1096945
:10268000016301214161BDE8F087000000040040C2
:1026900000080040000C0040005C01400040014088
:1026A000004401400048014000180040001C004068
:1026B00000200040F0B5026A22F001020262036AC3
:1026C00042688469154E24F073050C68144F2C433E
:1026D00023F002058B682B430F4DA84203D0B04274
:1026E00001D0B84206D123F0080CCB6843EA0C03B2
:1026F00023F00403A84203D0B04201D0B84205D170
:102700004D6922F4407215438A692A43426084610C
:10271000496841630362F0BD00400140004401404C
:102720000048014030B5026A22F010020262046AD9
:10273000426883690D6823F4E64343EA05238D6804
:1027400024F0200444EA05140B4DA84205D00B4D9B
:10275000A84202D00A4DA84207D14D6922F48062F6
:1027600042EA85028D6942EA8502426083614968D6
:102770008163046230BD000000400140004401401C
:102780000048014030B5026A22F480720262046A95
:102790004368C26924F4007422F073050A682A436E
:1027A0008D68436044EA0524C2614968C1630462DC
:1027B00030BD30B5026A22F480520262046A426877
:1027C000C3690D6823F4E64343EA05238D6824F4C6
:1027D000005444EA05344260C361496801640462FC
:1027E00030BD90F82410C90706D001684A68836A92
:1027F00022F400321A434A6090F82410890706D563
:1028000001684A68C36A22F480321A434A6090F829
:102810002410490706D501684A68036B22F4802218
:102820001A434A6090F82410090706D501684A68DF
:10283000436B22F400421A434A6090F82410C90600
:1028400006D501688A68836B22F480521A438A6035
:1028500090F82410890606D501688A68C36B22F4B3
:1028600000521A438A6090F82410490611D5016875
:102870004A68036C22F480121A434A60016CB1F575
:10288000801F06D101684A68436C22F4C0021A43D3
:102890004A6090F82410090606D501684A68806CE1
:1028A00022F4002202434A6070472DE9F8430026D3
:1028B0000446C0F88460FEF781F88046206800680E
:1028C0004FF0200500076FF07E4712D543460022E7
:1028D00029042046009700F02BF950B1216851E8F7
:1028E000000F20F0800041E80002002AF6D1E567E1
:1028F00021E020680068400722D5434600224FF4BB
:1029000080012046009700F013F9C8B1216851E812
:10291000000F20F4907041E80002002AF6D12068F0
:10292000083050E8001F21F0010140E80012002AA1
:10293000F5D1C4F8805084F878600320BDE8F883AE
:10294000E567C4F8805044F8606F66602676002022
:10295000F4E710B5406A0021A0F85A10A0F8521010
:10296000FFF7C8F910BD016851E8002F22F49072FA
:1029700041E80023002BF6D10168083151E8002F0F
:1029800022F0010241E80023002BF5D1016E01295C
:1029900008D1026852E8001F21F0100142E800133C
:1029A000002BF6D12021C0F880100021016681663D
:1029B0007047000070B5044680682169E2690843E9
:1029C000616900251143084321680A6849F20C63D4
:1029D0009A4302430A6020684168E26821F440514A
:1029E00011434160A169206A084321688A6822F482
:1029F000306202438A60494A2068494990420CD1BA
:102A0000086B10F0030006D001283DD002283DD00D
:102A1000032823D136E0012121E0424A90420DD122
:102A2000086B10F440302BD0B0F5803F2CD0B0F5BF
:102A3000003F2BD0B0F5403F10D123E03A4A9042FE
:102A40000CD1086B10F440201AD0B0F5802F1BD0A9
:102A5000B0F5002F1AD0B0F5402F13D01021E36944
:102A60004FF40040314A4FF6EF7683422ED10929C8
:102A700049D2DFE801F00D10134815484848180006
:102A80000021ECE70221EAE70421E8E70821E6E774
:102A9000FEF754FB06E0FEF769FB03E0104602E098
:102AA000FEF77CFB80B34100606801EB5001B1FB95
:102AB000F0F0A0F11001B14225D84FF6F0710140BD
:102AC000C0F3420001432068C16021E009291AD205
:102AD000DFE801F005080B190D1919191000FEF7B0
:102AE0002DFB06E0FEF742FB03E0104602E0FEF796
:102AF00055FB48B1616800EB5100B0FBF1F0A0F16B
:102B00001001B14201D9012502E0216880B2C860FC
:102B10000020A066E066284670BD00000038014035
:102B200000100240004400400048004000127A00BB
:102B30002DE9F047994617460E4604464FF0000827
:102B4000089D2FE0681C2DD0FDF738FFA0EB090091
:102B5000A84214D89DB120680168490722D5C169EF
:102B6000C94309070DD4082505622046FFF7FBFE7F
:102B7000C4F8845084F878800120BDE8F0870320F1
:102B8000FBE7C069C04300050CD421684FF4006026
:102B900008622046FFF7E7FE2020C4F8840084F88E
:102BA0007880ECE72068C06936EA000004D0002095
:102BB000B842C7D00020E0E70120F9E70148FFF75D
:102BC0009BB80000FC0100200148FFF795B8000009
:102BD000840200200148FFF78FB800000C0300209A
:102BE000012120F8401F00210180818001820846D8
:102BF000704730F8401F21F43F41018000207047AA
:102C0000FEE70907090E002804DB00F1E02080F848
:102C10000014704700F00F0000F1E02080F8141D50
:102C200070470000FDF7F0FFFFF790FCFFF7A6FAF2
:102C3000FFF77EFAFFF72CFBFFF754FBFFF77CFB57
:102C4000FFF7A0FBFFF7C4FBFFF710FCFFF72AFC20
:102C5000FFF744FC0948084901600821416002214E
:102C600081600161002181610162FEF755F808B1C0
:102C700072B6FEE7FEE70000005C0040940300200F
:102C80004FF04070E1EE100A70470203040506079A
:102C900008090A0B0C0D0E0F1010010203040506A3
:102CA0000708090A0B0C0D0E0F10000000000000B1
:102CB00000000102030406070809000000000102E9
:102CC00003040000E42C00080000002010000000B5
:102CD000C4010008F42C000810000020D0180000E7
:102CE000E0010008010000001000000000000000EA
:042CF00000127A0054
:040000050800018965
:00000001FF
