:020000040800F2
:1000000068210020D5020008774F00083D4900080C
:10001000754F000825280008A15A000800000000BC
:100020000000000000000000000000002B5100084C
:100030005F28000800000000794F00082D510008DB
:10004000EF020008EF020008EF020008EF020008CC
:10005000EF020008EF020008EF020008EF020008BC
:10006000EF020008EF020008EF020008EF020008AC
:10007000EF020008EF020008EF020008EF0200089C
:10008000EF020008EF020008EF020008EF0200088C
:10009000EF020008EF020008EF020008EF0200087C
:1000A000EF020008EF020008EF020008EF0200086C
:1000B000EF020008EF020008EF020008EF0200085C
:1000C000EF020008EF020008EF02000801510008EB
:1000D0000D5100087D5A0008895A0008955A0008F9
:1000E000EF020008EF020008EF020008EF0200082C
:1000F000EF020008EF02000800000000000000000E
:100100000000000000000000EF020008EF020008FD
:100110000000000000000000EF020008EF020008ED
:10012000EF020008EF020008EF020008EF020008EB
:10013000EF020008EF020008EF020008EF020008DB
:10014000EF020008000000000000000000000000B6
:10015000000000000000000000000000000000009F
:100160000000000000000000EF020008EF0200089D
:10017000EF02000800000000EF020008000000008D
:1001800000000000EF02000800F002F800F092F812
:100190000AA090E8000C82448344AAF10107DA45E2
:1001A00001D100F087F8AFF2090EBAE80F0013F0A2
:1001B000010F18BFFB1A43F00103184758840000D1
:1001C00078840000103A24BF78C878C1FAD8520762
:1001D00024BF30C830C144BF04680C6070470000C1
:1001E0000023002400250026103A28BF78C1FBD840
:1001F000520728BF30C148BF0B6070476E2900F01E
:100200009184702900F0DB85662908F00680652955
:1002100008F00380672908F00080612907F0FF8754
:1002200003681B0A28BF41F08001692900F03E8461
:10023000642900F03B84752900F038846F2900F0B0
:100240006885782900F0A785E92900F00385E4296D
:1002500000F00085F52900F0FD84EF2900F06585A8
:10026000F82900F0A6850368DB0928BF41F080016A
:10027000632901F03383732901F03883E32901F006
:100280004383F32901F04883002070471FB507F02E
:10029000BFFF01F04DFD04000020002107F0A2FF88
:1002A000401C60600020002107F086FFE0601FBD59
:1002B00010B510BD01F00EFD1146FFF7E7FF06F087
:1002C0006FFD01F0EBFD03B4FFF7F2FF03BC01F09B
:1002D00033FE00000948804709480047FEE7FEE773
:1002E000FEE7FEE7FEE7FEE7FEE7FEE7FEE7FEE7E6
:1002F00004480549054A064B70470000B9510008FB
:1003000089010008680F0020682100206811002082
:100310006811002053EA020C00F069802DE9F04BCF
:100320004FF00006002B1FBFB3FA83F503FA05F464
:1003300024FA05F65E4012BF1643B2FA82F502FABD
:1003400005F4C5F120051EBF22FA05FC44EA0C04A1
:10035000203556EA044C4FEA144418BF641C4FF091
:1003600000084FF00009904271EB030C39D30029CB
:1003700019BFB1FA81F701FA07F6B0FA80F700FA6F
:1003800007F6C7F120071EBF20FA07FC46EA0C0655
:100390002037B6FBF4FCA7EB0507103F07F01F0B57
:1003A000CBF120060CFA0BFB2CFA06F644BFB34641
:1003B0000026202FA4BF5E464FF0000B5BEA060C20
:1003C00008BF4FF0010B19EB0B09ABFB027C48EBAC
:1003D0000608C01B06FB02CC0BFB03CC71EB0C0127
:1003E000C1E70B46024641464846BDE8F08B13B5CF
:1003F0004FF000004FF00001AFF30080BDE81C405B
:100400007047B2F120030AD5C2F1200320FA02F0AE
:1004100001FA03F321FA02F140EA0300704721FADE
:1004200003F04FF00001704710B54C1084EA5304FC
:1004300004D54042C1F1000138BF491E1B4204D51A
:100440005242C3F1000338BF5B1EFFF763FF14F095
:10045000804F04D04042C1F1000138BF491E14F062
:10046000004F04D05242C3F1000338BF5B1E10BDE1
:100470007CB51D4616460C00009001D02044401E5D
:10048000074B7B442A4669460190304600F063FBE7
:1004900005461CB10020694600F070FB28467CBD73
:1004A000010700000FB400B58DB010A909900091AC
:1004B0000B904FF0FF300A9000200C9006487844D3
:1004C0000690064878446A4607900F9909A800F0FC
:1004D00059FD0DB05DF814FBE30A0000FB0A0000B3
:1004E0002DE9FF5F1D464FF0FF3B91464FF000089E
:1004F0005F46D5E90146A96901987F1C8847296AAA
:10050000824688470028F6D1BAF1FF3F0CD0002E72
:1005100024F4C06419DD600614D5BAF12B0F09D09C
:10052000BAF12D0F0ED103E0584604B0BDE8F09F9C
:1005300044F48064A96901987F1C8847761E82462E
:10054000002E02DDBAF1300F03D0B9F1000F26D032
:1005500032E0A969761E01987F1C44F40074884734
:10056000002E824605DDBAF1780F06D0BAF1580F99
:1005700003D0B9F1000F10D01EE0B9F1000F02D086
:10058000B9F1100F18D1A969761E01987F1C24F4C7
:10059000007488478246102002E0082000E00A200C
:1005A000814609E0A96908FB0908761E01987F1CAD
:1005B00044F4007488478246002E05DD49465046C3
:1005C00000F0CCFC0028EDDAE96901988847A00525
:1005D00002D46FF00100A8E7E00725D1600613D52B
:1005E000600502D5C8F1000000E0404629680A1DF8
:1005F0002A600968220501D5087015E0220701D597
:10060000088011E008600FE02868011D296000687B
:10061000210502D580F8008006E0210702D5A0F868
:10062000008001E0C0F8008038467EE730B505461E
:100630000B462A4613F8014B12F8010B08B1A042F1
:10064000F8D01CB1002802D06D1CF1E7284630BD5F
:1006500040EA010310B59B070FD1042A0DD310C83F
:1006600008C9121F9C42F8D020BA19BA884201D991
:10067000012010BD4FF0FF3010BD1AB1D30703D0D9
:10068000521C07E0002010BD10F8013B11F8014B8F
:100690001B1B07D110F8013B11F8014B1B1B01D1AB
:1006A000921EF1D1184610BD40EA0103024630B552
:1006B0009B0710D14FF0013400E008C208C91D1B90
:1006C0009D4315EAC41FF8D013F0FF0102F8011B87
:1006D0000DD01B0AF8E711F8013B002B02F8013B93
:1006E00005D011F8013B002B02F8013BF3D130BDDE
:1006F00010B5431C02E010F8011B71B18107FAD15B
:100700004FF0013202C88C1A8C4314EAC211F9D09E
:10071000C01A0A0603D0C01E10BDC01A10BD0A04BC
:1007200001D0801E10BD0902FCD0401E10BD40EA61
:10073000010370B59B072ED14FF00136042A2AD34E
:1007400008C810C99D1B9D43121F15EAC61517D076
:10075000D8B2E1B2401A50EA056110D198B2A1B204
:10076000401A50EA05410AD123F07F4024F07F412E
:10077000401A50EA052102D1180EA0EB146070BD9A
:10078000A342DBD018BA21BA884201D9012070BD3A
:100790004FF0FF3070BD0AB9002070BD10F8013B6A
:1007A00011F8014B63B1A3420AD1521E08D010F8D0
:1007B000013B11F8014B1BB1A34201D1521EEDD1F7
:1007C000181B70BD421E12F8013F002BFBD111F81F
:1007D000013B002B02F8013BF9D17047032A40F29C
:1007E000308010F0030C00F0158011F8013BBCF1D3
:1007F000020F624498BF11F801CB00F8013B38BFEB
:1008000011F8013BA2F1040298BF00F801CB38BFF8
:1008100000F8013B11F0030300F06780083AC0F0D4
:10082000088051F8043B083A51F804CBA0E80810BE
:10083000F5E7121D5CBF51F8043B40F8043BAFF3F1
:100840000080D20724BF11F8013B11F801CB48BF4B
:1008500011F8012B24BF00F8013B00F801CB48BF81
:1008600000F8012B7047431A28BF9A427FF6B6AFB3
:10087000032A1044114440F2268010F0030F1EBFDB
:1008800011F8013D521E00F8013D10F0030F7FF4F6
:10089000F6AF11F0030300F0B883083AC0F00B8004
:1008A00051F8043D083A51F804CD40F8043D40F8B1
:1008B00004CDFFF7F3BF121D5CBF51F8043D40F8B3
:1008C000043DAFF30080D20724BF11F8013D11F8B9
:1008D00001CD48BF11F8012C24BF00F8013D00F8FC
:1008E00001CD48BF00F8012C704710B5203AC0F088
:1008F0000B80B1E81850203AA0E81850B1E8185021
:10090000A0E81850BFF4F5AF5FEA027C24BFB1E85D
:100910001850A0E8185044BF18C918C0BDE81040CE
:100920005FEA827C24BF51F8043B40F8043B08BFD7
:100930007047D20728BF31F8023B48BF11F8012B9E
:1009400028BF20F8023B48BF00F8012B70474FF04A
:1009500000020429C0F0128010F0030C00F01B808C
:10096000CCF1040CBCF1020F18BF00F8012BA8BF9A
:1009700020F8022BA1EB0C0100F00DB85FEAC17C5E
:1009800024BF00F8012B00F8012B48BF00F8012B11
:1009900070474FF0000200B5134694469646203942
:1009A00022BFA0E80C50A0E80C50B1F12001BFF428
:1009B000F7AF090728BFA0E80C5048BF0CC05DF88E
:1009C00004EB890028BF40F8042B08BF704748BFDC
:1009D00020F8022B11F0804F18BF00F8012B704750
:1009E00070477047704770B5044685690068C10656
:1009F00001D5302600E02026C00707D070BDD4E91D
:100A0000012130469047206A401C20626D1EF6D5B9
:100A100070BD70B5044685690078C00707D170BD08
:100A2000D4E9012120209047206A401C20626D1EDD
:100A3000F6D570BD09684A0501D540B27047C905B1
:100A4000FCD500B2704709684A0501D5C0B27047AD
:100A5000C905FCD580B2704770B50C460546012A21
:100A600005D02878800600D5EA69002302E001233A
:100A700005E05B1C934202D2E05C0028F9D1A86932
:100A8000E618C01AA861286A184428622846FFF7A9
:100A9000AAFF04E0D5E9012114F8010B9047B44204
:100AA000F8D32846FFF7B5FF70BD00002DE9F041EF
:100AB0000646002410687529314616A510D0FFF7A8
:100AC000B9FF002802DA404213A507E031688A071F
:100AD00001D512A502E0490704D511A5012401E0C2
:100AE000FFF7B1FF00210A2206F1240709E0B0FB5D
:100AF000F2FCB0FBF2F302FB1C00303078541846D5
:100B0000491C0028F3D123462A463046BDE8F0416F
:100B100000F0F3BA000000002D0000002B000000E0
:100B20002000000011680268006A530501D50870B2
:100B30000AE0D30501D5088006E0130603D5C217E5
:100B4000C1E9000200E008600120704701694A1C09
:100B500002610878704700B58FB0CDE901310021FE
:100B6000059105497944CDE903101146684600F026
:100B700031F90FB000BD0000E5FFFFFF0A6802F881
:100B8000010B0A607047D1E900239A4202D2531C3C
:100B90000B601070704700002DE9FF5F15468A4614
:100BA0000446DFF8AC80F8440027D8E900103E4640
:100BB000CDE9001010E03AF816106A4602A801F0DC
:100BC00069F8411C07D02178890603D5E2693918F4
:100BD00091420DD80744761C2078800602D5E06942
:100BE000B84205DDAE42E6DB3AF816000028E2D155
:100BF000A069C01BA0612046FFF7F5FED8E90010F0
:100C0000CDE90010002017E03AF818106A4602A853
:100C100001F040F8B0F1FF3F81460BD000250DF107
:100C2000080B05E0D4E901211BF8050090476D1C75
:100C30004D45F7D308F10100B0428046E4DB206A5D
:100C4000384420622046FFF7E4FEBDE8FF9F000025
:100C50006E7900002DE9F0418046D21D22F0070296
:100C60000025D2E90002F52915A614D0011E72F163
:100C7000000106DA0023D0EB030063EB020211A6A9
:100C800008E0D8F800108B0701D50FA602E049074D
:100C900001D50EA601251146002408F1240704E021
:100CA00000F0DDF930323A55641C50EA0102F7D108
:100CB0002B46324621464046BDE8F04100F01DBAC1
:100CC000000000002D0000002B00000020000000AC
:100CD00030B4002100F1240408E002F00705D20836
:100CE000303542EA4372DB086554491C52EA030579
:100CF000F3D10468002310A2250707D5A40600D469
:100D000021B1C46901230DA2641EC46130BC00F08E
:100D1000F4B910B5044621461068FFF794FE024668
:100D20002046BDE810400023D2E7D21D22F0070183
:100D3000D1E90023CCE700000000000030000000F3
:100D4000F0B40D460188090502D5214C7C4402E02F
:100D50001F4C7C440E34002100F1240608E002F010
:100D60000F071209E75D42EA03721B097754491C19
:100D700052EA0307F3D102780023120704D5702D3D
:100D800006D009B1022311342246F0BC00F0B5B9F7
:100D900001231034F8E770B504460D46214610686B
:100DA000FFF751FE024629462046BDE87040002369
:100DB000C6E7D21D22F00703D3E90023C0E703688A
:100DC000126843F0200303600823C3610023B7E7E0
:100DD000D07700002DE9F05F894604464FF0000A05
:100DE000DFF874B1FB44C0F820A02046E1688847D2
:100DF000002874D0252806D0D4E901219047206A24
:100E0000401C2062F1E700265F462046E1688847E3
:100E10002028054607DB312D05D2781910F8200C63
:100E200008B10643F1E7B00701D526F00406C4F87F
:100E30001CA00027C4F818A02A2D09D0284604F0C9
:100E400058FE38B304EB8708303DC8F8185019E055
:100E500059F8041B204604EB87029161E16888473A
:100E6000012F054618D1E069002820DA26F0200677
:100E70001DE0D8F8180000EB800005EB400030388A
:100E8000C8F818002046E1688847054604F031FE9E
:100E90000028EED1012F0AD02E2D08D12046E1687E
:100EA00088477F1C0546022F46F02006C4DBA06958
:100EB000002803DA404246F00106A061F00701D0A5
:100EC00026F010066C2D0BD0682D09D04C2D39D092
:100ED0006A2D35D0742D35D07A2D33D016E038E018
:100EE000E1682F4620468847B842054609D16C2F55
:100EF00026D04FF48060E1680643204688470546C7
:100F000004E06C2F1AD04FF4807006430DB3A5F1A6
:100F10004100192802D8203546F400664A46294681
:100F2000204626604E46FFF769F980B101280BD0B4
:100F3000F61D26F0070000F1080956E74020E4E717
:100F40008020D8E70020D6E706F104094DE72846BF
:100F500052E7206ABDE8F09F607700003A2800D28F
:100F6000303820F02002412A01D3A2F13700884214
:100F700001D34FF0FF3070470268114413780160CD
:100F800018467047D1600549794451610449794454
:100F9000116200211161114600F0C2BCEDFFFFFF9C
:100FA00057010000426842B1016811F8013B23B1CA
:100FB000521EC0E90012184670470121C160881E08
:100FC000704742685AB1C368016843B983688B426D
:100FD00005D0491E521CC0E90012002070474FF096
:100FE000FF307047431A28BF9A427FF67EAC104408
:100FF00010F0030F11441EBF11F8013D521E00F8FE
:10100000013D10F0030F7FF4F6AF103AC0F00A80F4
:1010100010B531E91850103A20E91850BFF4F9AF73
:10102000BDE81040530724BF31E9081020E908103B
:1010300044BF51F8043D40F8043D12F0030F08BFCF
:101040007047D20728BF31F8023D48BF11F8012C84
:1010500028BF20F8023D48BF00F8012C704730B58A
:10106000B0F10A024FEA900E71F100034EEA817E60
:10107000B0EB0E0061EB91014FEA101E4EEA017ECB
:1010800010EB0E0041EB11114FEA102E4EEA016EEB
:1010900010EB0E0041EB11214FEA104E4EEA014ECB
:1010A00010EB0E0041EB1141401841F100014FEAF5
:1010B000D00040EA41704FEAD10110EB80054FEAC1
:1010C000810444EA907444EB01046D1944EB040478
:1010D000521BA3414FF0000348BF0A3200D530BD78
:1010E000401C41F1000130BD10B5044600F018FE6F
:1010F0000068005D00F0010010BD2DE9F0470D46CD
:1011000099469246044600F124080168880604D5F1
:10111000E06921F01001216000E00120A84201DD1A
:10112000471B00E00027A1697A1902EB0900081AA1
:10113000A0612078C00602D42046FFF754FC0026A8
:1011400008E0D4E901211AF806009047206A401C03
:10115000761C20624E45F4DB2078C0060AD5204676
:10116000FFF741FC06E0D4E9012130209047206AD6
:10117000401C2062381EA7F10107F4DC07E0D4E927
:10118000012118F805009047206A401C2062281EA3
:10119000A5F10105F3DC2046FFF73BFC20780006B3
:1011A00002D50220BDE8F0870120FBE770472DE95A
:1011B000FF4F0C461E464FF0FF378BB0D2E90001BF
:1011C000DDF860800A908A46C1F30A5505B93D46AC
:1011D000002108464FF00000BAF1000F00F4400073
:1011E00005DA00EB80004FF4400101EA50004FEABD
:1011F0009059B9F1010F00DDB9460A9850EA4A004A
:101200000ED044F61050A5F2FF3545432F14B8F127
:10121000000F1ED07542291E1EDDC9F100021CE020
:10122000B8F1010F4FF0000001D0302103E0F2438C
:1012300005E02154401CB042FBDB30460022002177
:1012400021540B99C1F80880C1E900200FB0BDE816
:10125000F08FBD1B6D1CDEE74A4600DA694206A826
:1012600000F0AAFD06AB93E8070003AB83E8070094
:1012700050460A9900F067FE8DE80700A0F500507F
:101280001F3800900398002D0ADD42F21F014A46E4
:101290000844002303A90390684601F0D0F809E050
:1012A000A0F500504A461F38002303A90390684662
:1012B00001F0DAF88DE807000004000C03D04FF0CD
:1012C000FF30410800E01046B8F1000F03D00022C3
:1012D000009215461EE0751E05D4FFF7C0FE3032A1
:1012E00062556D1EF9D5B3460122084302D0002293
:1012F0007F1C04E02078302801D100227F1E002AC4
:10130000099784D01DE0112D07DAFFF7A8FE3032CF
:1013100062556D1C50EA0102F5D1084302D00098D5
:10132000C8B10EE00021681E05E0235C625C6354D6
:101330002254401E491C8142F7DBAB46A81B401ECD
:101340000990002004F80B000B98099AC0F8088057
:10135000C0E9002B7AE711264FF0000857E72DE986
:10136000F04F88460446D21D22F0070191B0D1E922
:101370000001CDE90A0104F094FB02460B98C00F6E
:1013800001D02D2007E02068810701D52B2002E045
:10139000202101EAC000032A099001D0072A05DBB9
:1013A00003464146204600F0C7FC0BE1207880064A
:1013B00001D5E06900E00620B8F1650F814606D04E
:1013C000B8F1660F18D0B8F1670F70D131E0002086
:1013D000B9F1110F009001DB112301E009F10103C4
:1013E0000AAA01A90CA8FFF7E2FEDDE90C700026AD
:1013F00009F10105834647E001204B4600904FF07C
:1014000000470AAA01A90CA8FFF7D1FEDDE90DB03B
:101410000C995D46002610B909F101000D18B9EBD1
:10142000050003D4C0F1FF3609F10105A5EB090061
:101430002BE0B9F1010F01DA4FF001090020B9F1F9
:10144000110F0090484601DD112300E003460AAA6F
:1014500001A90CA8FFF7ABFEDDE90C704D46002694
:101460008346207800070AD4AB4500DA5D4601A820
:10147000012D04DD411911F8011C302907D04F4519
:1014800002DA17F1040F04DA012082460FE06D1E24
:10149000EEE7002F02DCED1B3E4403E0781CA8427F
:1014A00000DD7D1CB81B00F1010A4FF000472078D9
:1014B000000703D4AA4501DB4FF0FF3A0021B7F142
:1014C000004F0DF143088DF8431024D002202B2348
:1014D000002F01DA7F422D230A21021EA0F1010014
:1014E00000DC5FB197FBF1FC97FBF1F201FB1C7C88
:1014F00017460CF1300C08F801CDEEE7A8F1010019
:1015000003702188090501D5452100E06521A0F17E
:10151000010800F8011C09980FA9A1EB0807FF1D9D
:1015200000B10120411901EBEA70A1693844081AA1
:10153000401EA0612078C00602D42046FFF753FA6F
:10154000099828B1D4E901219047206A401C206203
:101550002078C00622D52046FFF745FA1EE0002E6F
:1015600004DBB34502DD01A8805D00E03020D4E952
:1015700001219047206A401C2062761CAAF10100DC
:101580005FEA000A0AD100F0D3FBC0680168405C42
:10159000D4E901219047206A401C2062281EA5F151
:1015A0000105DCDC07E0D4E9012118F8010B9047C4
:1015B000206A401C2062381EA7F10107F3DC204698
:1015C000FFF727FA032011B041E600002DE9F04FA4
:1015D00004460D46D21D22F0070089B0D0E90097DD
:1015E0004846394604F05DFA0246F80F01D02D2333
:1015F00007E02068810701D52B2302E0202101EAC2
:10160000C0038DF820300BB1012000E00020032A38
:10161000824601D0072A04DB2946204600F08CFBD5
:101620003FE12078800601D40D2500E0E569C7F38D
:101630000A560D2D49DA00214FEA175B08464FF094
:101640000000002F00F4400007DA00EB80004FF4A8
:10165000400100EBD07001EA60008115012901DD35
:101660004FF0FF3100224FEA850CBCF1180F06D372
:101670001346ACF118004FF08052C24003E04FF423
:10168000801323FA0CF30CF10C0CBCF1200F04D3E3
:10169000ACF1200C09FA0CF001E007FA0CF000297B
:1016A0004FF0004801DD18B90FE00ED140450CD3D2
:1016B00019EB02095F4121B9404502D19F4329EA54
:1016C0000209BBEB175F00D0761C2088000502D50D
:1016D0007B48784402E07A487844193808AA3023D5
:1016E00002F80A30037C0AF10101002E0AF1020A15
:1016F00053546A4602DC4FF0300101E04FF03101F3
:101700004FF001088DF8001002D0A6F2FF3603E07A
:1017100059EA470100D06B4E002D02DC2178090701
:1017200004D54FF002082E218DF80110C446002187
:101730000BE0C7F303433F01C35C491C6D1E02F875
:101740000830052908F1010801DA002DF1DC00213B
:101750000CE000EB1973491C1B786D1E082902F878
:1017600008304FEA091908F1010801DA002DF0DC10
:1017700021688B0602D516E0A8F10108E04505DDD9
:1017800002EB080313F8013C302BF5D0B8F1000F41
:1017900009DD02EB080313F8013C2E2B03D10907E6
:1017A00001D4A8F10108002D05DD3E2102F8081042
:1017B0006D1E08F10108407C002E02F8080008F1B7
:1017C000010804DA2D20764202F8080002E02B20FE
:1017D00002F808000A214FF47A70864208F10108E5
:1017E0000BDB96FBF0F3303302F8083096FBF0F396
:1017F00008F1010800FB136601E0642E0CDB642095
:1018000096FBF0F3303302F8083096FBF0F308F162
:10181000010800FB136601E00A2E06DB96FBF1F0DF
:10182000303002F8080008F1010896FBF1F001FBE6
:101830001060303002F80800A16908F1010808EBD7
:10184000050202EB0A00081AA0612078C00602D443
:101850002046FFF7C8F8216A08AE01EB0A002062B3
:1018600004E0D4E9012116F8010B9047BAF1010A0E
:10187000F7D22078C00602D52046FFF7B4F86E46AE
:1018800009E016F8010B3E280FD0D4E9012190475A
:10189000206A401C2062B8F10108F2D22046FFF70E
:1018A000B8F809B00320BDE8F08F206A2844206210
:1018B00003E0D4E90121302090476D1EEBD3F8E717
:1018C000966E000002FCFFFF10B5436913B1AFF341
:1018D000008001E0FFF7C0F8012010BD127800F190
:1018E00024010A7000224A700122EDE711684FF0CE
:1018F000FF32E9E710B5436913B1AFF3008001E0AF
:10190000FFF74AF9012010BD128800F124018284FA
:101910000022C2840122EDE711684FF0FF32E9E7AF
:101920002DE9F34F4FF0000A0C4656468DB00120CA
:101930000C9001F10C000B9062690B98012190470B
:10194000051E2DD0252D2CD0216A8847C0B1626993
:101950000B9801219047216A88470028F7D16269D6
:10196000411E0B98904700E0761CA1690D988847AE
:10197000216A88470028F7D1E1690D988847DBE79D
:10198000A1690D988847A842074601D1761CD3E784
:10199000E1690D9888477F1C02D1BAF1000F6FD022
:1019A0006CE162690B9800273D46394690472A282A
:1019B00004D162690B98012190470125DFF8D0829C
:1019C00062690B9801219047A0F130010A290AD2DF
:1019D0004745E5DC07EB870100EB4107303FDFD4EB
:1019E00045F01005ECE7E90601D46FF000476C28DC
:1019F0000AD04C2814D0682815D06A280DD0742835
:101A00001CD07A281AD01DE062690B9801219047FA
:101A10006C2802D045F0040514E045F002050DE005
:101A200045F020050AE062690B980121904768287B
:101A300002D045F0080505E045F4006562690B98A1
:101A400001219047C4E9015765283DD019DC582889
:101A50007AD00CDC452837D004DC252826D0412854
:101A60009ED131E046282FD0472899D12CE05B2821
:101A700077D0612828D063287CD0642823D15AE00D
:101A8000F7E06F2848D008DC66281DD067281BD0F7
:101A9000692821D06E2816D127E0702845D07328F8
:101AA00068D0752847D078280DD14DE0A1690D98F0
:101AB0008847252805463FF469AFE1690D988847B6
:101AC0006D1C3FF46AAFD9E00D9923466A466FF06A
:101AD0000100AFF30080C6E045F0400023464FF020
:101AE00000026060A80736D43EE0E8077FF447AF05
:101AF0002068011D21600068290501D506701BE7DB
:101B0000290701D5068017E7A90703D5F117C0E912
:101B1000006111E706600FE745F0400023464FF0F3
:101B200008026060A80716D41EE040F60E0125EA00
:101B30000100606016E045F0400023464FF00A02C5
:101B40006060A80707D40FE045F040006060A80778
:101B500008D5234610220D996FF00100AFF30080E5
:101B600081E007E0102223460D996FF00100FEF797
:101B7000B7FC78E04FF0000963284F46C8464B4653
:101B8000CB4602D05B2807D039E02079C00601D4CB
:101B90000120A060012732E06269D4F80CB00B98F4
:101BA000012190475E2807D14FF00109494662693B
:101BB000D4F80CB00B989047216939B900210A4636
:101BC00003AB43F82120491C0829FADBD8B321696B
:101BD00049B308F1010862690B98012190475D281B
:101BE000F4D1B9F1000F09D0002003A951F8202049
:101BF000D24341F82020401C0828F7DB03AB2069C2
:101C0000002820794FEA40701ED05B462246CDF86E
:101C10000080CDE901970D9900286FF0010020DACE
:101C2000AFF300801FE0C11703AA00EBD1614B1195
:101C300021F01F0102EB8302411A13680120884042
:101C400003431360C7E719E00D99224600286FF09F
:101C50000100009702DAAFF3008004E0AFF30080E8
:101C600001E0AFF3008000280ADA401C06D10C988E
:101C700020B14FF0FF300FB0BDE8F08F5046FAE7CB
:101C8000E90701D10AF1010A064400200C9053E64D
:101C9000CCCCCC0C70B516460C46054600F040F88E
:101CA000036893F80101012806D0FF2C0FD8185DB6
:101CB00068B101202C7070BDD3F80701324621466F
:101CC00003F2071303442846BDE8704018474FF05D
:101CD000FF3070BD754600F0EBF8AE460500694672
:101CE000534620F00700854618B020B5FEF700FBEC
:101CF000BDE820404FF000064FF000074FF000080D
:101D00004FF0000B21F00701AC46ACE8C009ACE88D
:101D1000C009ACE8C009ACE8C0098D4670470000B6
:101D200010B500F005F8001D10BD00BFB96400003B
:101D300000487047280F00202DE9F0411F46044657
:101D400003260168072A01F4006004DB08B116A528
:101D500005E016A503E008B115A500E015A521F0E2
:101D600010002060A069C01EA0610FB1401EA061DC
:101D70002046FEF738FE4FB1D4E90121384690479E
:101D8000206A401C2062C01C206206E0206AFAE73C
:101D9000D4E9012115F8010B9047761EF8D22046B0
:101DA000FEF737FEBDE8F0814E414E006E616E00D9
:101DB000494E4600696E66002DE9F0478146164699
:101DC0008AB0354878440DC88DE80D003248784413
:101DD000801C03AC0DC884E80D0041F69B3008441C
:101DE000372190FBF1F290FBF1F5A5F1800501FBA5
:101DF00012041B3C02D56442012000E00020DFF801
:101E000098A080460027FA44AAF1BE0A0EE0E00737
:101E10000AD03246684607EB470101230AEB8101ED
:101E200000F022FB8DE8070064107F1C002CEED12F
:101E3000194F7F44AE3F19E0E80715D007EB0410B7
:101E40000DF1180A90E80E008AE80E00C068F04212
:101E500001D1981908903246012306A903A800F081
:101E600003FB03AB83E807006D10641C002DE3D176
:101E70004FF0010332466946B8F1000F03A802D0C3
:101E800000F0DDFA01E000F0EFFAC9E90001C9F85D
:101E900008200AB0BDE8F0873468000010B5044699
:101EA000AFF300802046BDE81040FEF70CBA0000FA
:101EB00000487047080F00204FF0013C50F8042BF9
:101EC00051F8043B9A4221D1A2EB0C03934313EA4D
:101ED000CC1317D150F8042B51F8043B9A4215D17A
:101EE000A2EB0C03934313EACC130BD150F8042B51
:101EF00051F8043B9A4209D1A2EB0C03934313EA35
:101F0000CC13DBD04FF00000704700BFD01A01BAED
:101F1000B1FA81F101F0180122FA01F0CB40C1F1D0
:101F20002001DBB2C0B2C01A2CFA01F3D11A9143DE
:101F300011EAC311E6D1704701491820ABBEFEE794
:101F40002600020070475FEA400C08BF91F0000FC6
:101F50004FEA8C234FEAC12243EA51514FEA1C5009
:101F600018BF00F5F0404FEA300018BF41F00041C3
:101F70005FEA6C5C00F02980BCF1FF3F08BF40F0D5
:101F800080407047130C06BF12044FF0100C4FF046
:101F9000000C130E04BF12020CF1080C130F04BF47
:101FA00012010CF1040C930F04BF92000CF1020C0F
:101FB000D30F04BF52000CF1010C11464FF0000288
:101FC000A0F11F00A0EB0C00704711F0004F08BFFC
:101FD000704731F000413FF4D5AF0B0C06BF090448
:101FE0004FF0100C4FF0000C0B0E04BF09020CF167
:101FF000080C0B0F04BF09010CF1040C8B0F04BF7C
:1020000089000CF1020CCB0F04BF49000CF1010C4C
:10201000CCF12003A0EB0C0022FA03F302FA0CF23D
:1020200041EA030100F10100704720F07F4C80EA93
:10203000030023F07F47ACEB070303F57C5300F06C
:10204000004003F1FF032DE980494FEA154B09B425
:102050004FEA144325EA0B4E24EA03480FF2042604
:1020600006EB132749083E785FEA320203FB066756
:10207000C7F5000707FB06F64FEA54374FEAD64686
:1020800006F1020607FB066CCCF1005C4FEA1C4728
:102090002CEA074C07FB06F40CFB06F504EB15468F
:1020A0004FEA961634BF00204FF000404FEAD13778
:1020B00006FB07FC4FEA1C4C0CFB0BF7D21B03FB87
:1020C0000CF761EB07010CFB0EF7B0EB074072EB6E
:1020D00017420CFB08F734BFA2EB0742B2EB0742F2
:1020E00061EB17414FEA0C444FEA910706FB07FCEE
:1020F0004FEA1C4C0CFB0BF7B0EBC74072EB5732AE
:1021000003FB0CF734BFA2EBC742B2EBC74261EB53
:1021100057310CFB0EF7B0EBC70072EB57720CFB9C
:1021200008F734BFA2EBC702B2EBC70261EB5771ED
:10213000039F4FEA816141EA921104EBCC044FEA1C
:10214000D1374FEA826206FB07FC42EA90124FEA5F
:1021500080604FEA1C4C0CFB0BF7D21B03FB0CF707
:1021600061EB07010CFB0EF7B0EB074072EB174277
:102170000CFB08F734BFA2EB0742B2EB074261EB5E
:1021800017414FEA8C554FEA910704EB9C2406FB5C
:1021900007FC4FEA1C4C0CFB0BF7B0EBC74072EB93
:1021A000573203FB0CF734BFA2EBC742B2EBC74276
:1021B00061EB57310CFB0EF7B0EBC70072EB5772B7
:1021C0000CFB08F734BFA2EBC702B2EBC70261EB0E
:1021D000577115EB4C254FEA816141EA92114FEAA4
:1021E00082624FEAD13742EA901206FB07FC44F1C3
:1021F00000044FEA80604FEA1C4C0CFB0BF7D21B2B
:1022000003FB0CF761EB07010CFB0EF7B0EB07408B
:1022100072EB17420CFB08F734BFA2EB0742B2EB9C
:10222000074261EB174115EB1C154FEA813141EA7A
:1022300092414FEA823242EA90424FEA80304FEABE
:102240000C7644F1000448EA03434EEA0B484FF091
:10225000000EB2EB080C71EB030724BF624639464F
:102260004EEB0E0E4FF0000B0018524149414BEB64
:102270000B0BB2EB080C71EB03077BF1000B24BFD7
:10228000624639464EEB0E0E4FF0000B00185241DD
:1022900049414BEB0B0BB2EB080C71EB03077BF1E5
:1022A000000B24BF624639464EEB0E0E51EA020780
:1022B00018BF46F0010616EB0E7655F1000254F1F8
:1022C000000103D5BDE88901BDE80088BDE88901AA
:1022D000BDE80048B619524141EB0101A3F10103E9
:1022E000704780807F7E7D7C7B7A79787776767583
:1022F0007473727171706F6E6E6D6C6C6B6A6A69FB
:102300006868676666656464636362616160605F94
:102310005F5E5E5D5D5C5C5B5B5A5A59595858570D
:102320005756565555555454535352525251515075
:1023300050504F4F4F4E4E4D4D4D4C4C4C4B4B4BC8
:102340004A4A4A494949484848474747474646460E
:102350004545454444444443434343424242424149
:102360004141002B9C4630D477002BD01CB54FEA5E
:10237000370703B44FF010004FF01001BAF1000F0F
:1023800006D0BCF1000FDCBF40F0080040F00801AF
:102390004FF000000FBCBDE810400BF1010BBBF18A
:1023A000010F08BF5FEA170722BF12F1010211F106
:1023B00001014FF0004143F1000300F0004043EA07
:1023C00000007047F9D35708D0E746EA064613F1F4
:1023D000400F4FEA16461FDD13F1200FDFBF1643F3
:1023E0000A46002120335B42BED0C3F1200746EAF3
:1023F000064602FA07F74FEA164646EA0706C3F111
:10240000200722FA03F201FA07F721FA03F14FF04D
:10241000000342EA0702A7E746EA020646EA064642
:102420004FEA164646EA0106BCBF46EA0646360CA7
:102430004FF000034FF000024FF0000194E72DE948
:10244000804C9A46934670B491E8380007C831EA48
:10245000400C48BF34EA430C03D5FFF7E6FDFFF715
:1024600080FFF0BCBDE8008C2DE9804C9A46934675
:1024700070B491E8380007C810F0804F08BF13F01F
:10248000804F03D100F005F8FFF76BFFF0BCBDE80B
:10249000008C20F07F4780EA030023F07F4C07EB9D
:1024A0000C03A3F57C5300F00040A3F1FE0392F06F
:1024B000000F00F0B38095F0000F00F077802DE959
:1024C00001494FEA11404FEA144621EA004800FB57
:1024D00006FC24EA064708FB06F607FB08F800FBA3
:1024E00007F718EB06484CEB164C4FEA124B18EB6B
:1024F00007484FEA15464CEB174022EA0B4E0BFB00
:1025000006FC25EA06470EFB06F607FB0EFE0BFB54
:1025100007F71EEB064E4CEB164C4FF000061EEB79
:10252000074E4CEB174B18EB0B0840F1000018EB73
:102530000E0B58EB000840F100008F1A4FF000011D
:102540003CBFC943661B14BFB5EB040C00213CBF64
:10255000C943F61B4FEA17444EEA8E0E27EA04459C
:102560004FEA1C4704FB07622CEA074C05FB07F700
:102570000CFB05F604FB0CFC16EB074642EB17427E
:1025800016EB0C4642EB1C421BEB060658EB020214
:10259000414146EA9E0601D5BDE80189B61952417E
:1025A00041EB0101A3F10103BDE801894FEA1445A4
:1025B0004FEA114724EA054621EA074C05FB07F4D8
:1025C00006FB07F70CFB06F105FB0CFC11EB0741C2
:1025D00044EB17444FEA124711EB0C4144EB1C4407
:1025E00022EA074C05FB07F206FB07F70CFB06F691
:1025F00005FB0CFC16EB074642EB174216EB0C46AC
:1026000042EB1C456A1854F1000148BF7047B619E7
:10261000524141EB0101A3F10103704795F0000F16
:1026200037D04FEA11424FEA144721EA024624EA22
:10263000074C02FB07F106FB07F70CFB06F402FB55
:102640000CFC14EB074441EB17414FEA154714EB20
:102650000C4441EB1C4125EA074C02FB07F506FB45
:1026600007F70CFB06F602FB0CFC16EB074645EBE6
:10267000174516EB0C4645EB1C42121951F10001AF
:1026800048BF7047B619524141EB0101A3F1010364
:1026900070474FEA14454FEA114724EA054621EAFC
:1026A000074C05FB07F106FB07F70CFB06F24FF0A2
:1026B000000605FB0CFC12EB074241EB174112EB45
:1026C0000C4251EB1C4148BF7047921841EB01018D
:1026D000A3F101037047000070B5044600688168EB
:1026E000C943C90717D1816821F00101816000F059
:1026F00039FE05460AE000BF00F034FE401B022808
:1027000004D920688068C043C00706D0206880686C
:10271000C043C007F0D0002070BDA06A40F0100098
:10272000A062E06A40F00100E062012070BD00009C
:10273000F8B500260446009600688168C943C907B9
:102740002DD0816841F0010181601648164900686A
:10275000B0FBF1F000E0401E00900028FBD100F03B
:1027600001FE054616E000BF00F0FCFD401B0228FC
:1027700010D920688068C043C0070BD0A06A40F021
:102780001000A062E06A40F00100E06284F824607A
:102790000120F8BD20688068C043C007E4D1002054
:1027A000F8BD00000C00002040420F002DE9F0476A
:1027B0000D46DDE908891E46174604469821FEF7B6
:1027C000E8F8C4E90057C4E902680020A4F894902E
:1027D0000346012104EBC002401CA2F85A30A2F8C3
:1027E000581051650828F5DB284600F0AFF818B1FD
:1027F000206940F0010121610648C4F8A80006489C
:10280000C4F8AC00054844F8980F05486060BDE87E
:10281000F0870000015B0008095B0008295B0008E5
:10282000415B0008FEE770B50346104641F2210403
:102830004FF6FF7510E013F8012B80EA022000220A
:10284000060403D584EA400080B201E005EA4000B6
:10285000521CD2B2082AF3D3491EECD570BD704782
:1028600072B6FEE706490020C8610648016941F0DA
:1028700004010161016941F04001016170470000FC
:102880009803002000200240064A0021D161064939
:102890000A6942F002020A614861086940F040009A
:1028A000086170479803002000200240044B00227A
:1028B000DA61044A136943F0010313610180704730
:1028C00098030020002002400A490020CA68D3066D
:1028D000094A04D5D06940F00200D0611020CB68CD
:1028E0005B0705D5D36943F00103D36140F00400D1
:1028F000C8607047002002409803002070B505466C
:1029000000F030FD0646104C09E0681C07D025B1E8
:1029100000F028FD801BA84201D9032070BDE068AB
:10292000C007F2D1E068800601D52020E060E068B1
:10293000C00602D4E068400703D5FFF7C5FF0120B9
:1029400070BD002070BD000000200240F8B50025D9
:102950000446009590F82400012808D0012084F84E
:1029600024002046FFF7B8FE060002D04DE002200A
:10297000F8BDA06A20F4885040F00200A0620098E0
:1029800001E0401C0090FF28FBD92046FFF7D0FE55
:102990002068816841F00801816000F0E3FC07468F
:1029A00009E000BF00F0DEFCC01B0A2803D9206844
:1029B0008068000715D4206880680007F2D420687A
:1029C000816841F00401816000F0CCFC074612E010
:1029D00000F0C8FCC01B0A280DD920688068400799
:1029E00009D5A06A20F0020040F01000A06284F82F
:1029F00024500120F8BD206880684007E8D4A06A10
:102A000020F0020040F00100A06284F8245030461B
:102A1000F8BD0000F8B50024009490F82420254665
:102A2000012A12D0012280F824204A681F23072A95
:102A30000DD20668776B521E02EB820293409F43D1
:102A40000B6893401F43776319E00220F8BD0668C6
:102A50000D2A0AD2376BD21F02EB820293409F43AA
:102A60000B6893401F43376309E0F76A0D3A02EBA6
:102A7000820293409F430B6893401F43F7620A68AA
:102A8000072306680A2A0AD9F7680A3A02EB4202C3
:102A900093409F438B6893401F43F76008E037697A
:102AA00002EB420293409F438B6893401F43376180
:102AB0000A68102A04D0112A02D0122A16D01AE06D
:102AC0000268936843F4000393600968102912D1E7
:102AD0000B490C4A0968B1FBF2F101EB8101490095
:102AE00000E0491E00910029FBD104E006490A6874
:102AF00042F080720A6080F824502046F8BD000041
:102B00000C00002040420F00000001400068C06C33
:102B1000704700002DE9F0414FF0000704003D46EA
:102B20007ED0A06A002628B9E66284F82460204698
:102B300000F07EF82046FFF7CFFDA16AC90600D459
:102B400020B1A06A40F01000A06269E0A16A21F4FF
:102B5000885141F00201A1626268E169237B0A4366
:102B600047EA43010A43A1684FF48077B94209D08C
:102B7000012907D05FF0000194F814C0BCF1010FE7
:102B800002D00AE03946F7E7F3B1A36A43F0200325
:102B9000A362E36A43F00103E3622368D3F804C04D
:102BA0002CF4694C4CEA010CC3F804C021688B6812
:102BB000DFF870C003EA0C0313438B60A168B942CD
:102BC0000BD0012909D00CE0DFF85CC0A3690CEB45
:102BD00043330B4343F40061DFE7218A0D05A5F57C
:102BE00080152168CB6A23F470032B43CB622168E4
:102BF00089680E4B1940914208D1E662A16A21F022
:102C0000020141F00101A162BDE8F081A06A20F05B
:102C1000020040F01000A062E06A40F00100E062B3
:102C20000120F1E7FDF7E1FF00E0FFFFFE0E1FFFCF
:102C300010B586B0044614216846FDF7AAFE114976
:102C4000206888421BD11048816941F4007181617C
:102C5000816901F400710591416941F400314161DC
:102C60004069694600F400300590FF200090032081
:102C70000190002002904FF0904000F079FA06B0E9
:102C800010BD000000240140001002402DE9F04773
:102C9000044600680D4600268068B046C00508D589
:102CA000A06A40F02000A06284F824800120BDE8E2
:102CB000F08700F057FB814620684168C90503D4BE
:102CC000C16A11F4700F16D03F494A68496812F47E
:102CD000404F15D0C90417D4202116E0681C0AD033
:102CE0002DB100F03FFBA0EB0900A84203D92068FA
:102CF000006880073FD5206800688007EED545E072
:102D00008904E9D4022100E0802107692F4A174293
:102D10004FEA62024FEAA2130DD1C7684FEA621C64
:102D200017EA0C0F07D10769174213D1C068184280
:102D300010D1142011E00769174202D1C2681A426B
:102D400006D00369224A134206D1C068104203D15B
:102D5000542002E0292000E0FC2010FB01F713E0E2
:102D6000681C10D02DB100F0FDFAA0EB0900A842BC
:102D700009D9BE4207D2A06A40F00400A06284F8DC
:102D80002480032093E7761CBE42E9D321686FF0CC
:102D900012000860A06A40F40070A0622068806899
:102DA000C0F3424007280CD1207B50B9A06A20F420
:102DB0008070A062A06AC00403D4A06A40F0010041
:102DC000A062002073E70000001002402449922412
:102DD0004992240010B5044690F82400012808D038
:102DE000012084F824002046FFF7A2FC010002D055
:102DF0002CE0022010BDA06A40F20122904340F472
:102E00008070A06220684268520505D5A26A22F44B
:102E1000005242F48052A262A26AD3044FF0000230
:102E200004D5E36A23F00603E36200E0E26284F87B
:102E300024206FF00202026020688268C2F34242DE
:102E4000072A826804D042F480128260084610BDCE
:102E500042F4A002F9E710B5044690F824000128D6
:102E600007D0012084F824002046FFF735FC10B17C
:102E700007E0022010BDA16A21F4885141F0010150
:102E8000A162002184F8241010BD0000F0B50446B2
:102E90000020CB0711D01E235FF0010603F01F07AF
:102EA00006FA07F50D4201D15B1EF7D27AB1082A66
:102EB0000BD0102A06D0182A01D00120F0BD072B14
:102EC000FBD204E0082BF8D201E0102BF5D22368E6
:102ED000596121688B6823F0180313438B60F0BDA0
:102EE00010B5040010D0607F20B900202077204664
:102EF00000F030F802206077207938B1D4E902126E
:102F00002046FFF7C3FF48B1012010BD21681048DB
:102F100048612068816821F0180181606079A0B162
:102F200020692168086120688168626921F0600178
:102F30001143816020688168A26921F080011143FA
:102F4000816001206077002010BD4FF0FF30E8E77E
:102F5000B71DC10408B500680649884208D1064873
:102F6000416941F040014161406900F0400000903A
:102F700008BD0000003002400010024010B590F87B
:102F800021100022022905D00421816380F820202D
:102F9000012010BD01680B6823F00E030B6001686F
:102FA0000B6823F001030B6090F84030C46B0121E3
:102FB00001FA03F3636080F8211080F820200020DC
:102FC00010BD10B590F821100024022903D004216F
:102FD0008163012418E001680A6822F00E020A6089
:102FE00001680A6822F001020A6090F84020C36B71
:102FF000012101FA02F25A6080F82110002180F8C4
:103000002010416B01B18847204610BD2DE9F047E3
:10301000054626480F460126017E01290FD00121D1
:10302000814601762868DFF888804CF25034012808
:1030300008D0A2462046FFF761FCA0B130E0022094
:10304000BDE8F0872046FFF759FC00BBFFF70AFCFC
:103050002046FFF753FCD8F81010064621F0040173
:10306000C8F810101CE04FF0FF3038606C6811E0B9
:103070002046FFF709FC5046FFF740FCD8F8101037
:10308000060021F00201C8F8101001D03C6007E0F2
:1030900004F50064D5E9010100EBC120A042E7D8A6
:1030A000002189F818103046CAE700009803002074
:1030B000002002400348016941F0800101610020C5
:1030C00070470000002002402DE9F05F07461C48D1
:1030D00088460024017E15461E46012909D001219B
:1030E000814601764CF2503A5046FFF707FC18B182
:1030F00022E00220BDE8F09F012F02D0022F00D075
:103100000427D346DFF83CA0220128463146FDF7CC
:1031100078F981B208EB4400FFF7C8FB5846FFF787
:10312000EDFBDAF8102022F00102CAF8102018B9DD
:10313000641CE4B2BC42E7D3002289F81820D9E726
:103140009803002000200240064900200A69120668
:1031500007D5054A4A60054A4A600969090600D54B
:10316000012070470020024023016745AB89EFCD65
:103170002DE9F04FDFF8AC9100230325A9F1040BF2
:1031800085B04FF0010C0F2709F1040AABF1040ED2
:10319000BFE000BF0CFA03F6324075D00C7904F0A2
:1031A0000304012C01D0022C1BD1846800945C0024
:1031B00005FA04F80494009C24EA08040094D1F869
:1031C0000C80049C08FA04F8009C48EA0408C0F843
:1031D00008804468B4430E79C6F300169E40264327
:1031E00046600C79E443A4070AD0C4684FEA430858
:1031F00005FA08F6B4438E6806FA08F62643C66058
:103200000C7904F00304022C10D1DC0800EB8404D8
:103210000294246A5E074FEAD66807FA08F6B443B8
:103220000E6906FA08F62643029C266204684FEAF5
:10323000430805FA08F6B4430E7906F0030606FAC9
:1032400008F6264306604C6814F4403F60D0364CC4
:10325000A66946F00106A661A46923F0030604F0FE
:1032600001040094314C34440294A4689E074FEA50
:10327000167807FA08F6B443B0F1904F05D02C4EFB
:10328000B04204D1012612E042E000260FE0294EB0
:10329000B04201D102260AE0274EB04201D10326F6
:1032A00005E0264EB04201D1042600E0052606FACC
:1032B00008F62643029CA660D9F800604C46D1F877
:1032C000048096435FEAC82800D516432660DAF8E2
:1032D00000405646D1F8048094435FEA882800D520
:1032E00014433460DBF800405E46D1F80480944318
:1032F0005FEA883800D514433460DEF80040764633
:10330000D1F8048094435FEAC83800D51443346090
:103310005B1C0A6832FA03F47FF43CAF05B0BDE8E9
:10332000F08F00000804014000100240000001403E
:103330000004004800080048000C00480010004845
:103340000069084000D001207047426921EA020369
:103350000A4043EA0241816170470AB181617047C6
:1033600081627047014880687047000000000020BB
:103370000248816802781144816070470000002093
:10338000074810B5016841F010010160032000F00A
:103390006DF80F2000F006F800F024F8002010BDB2
:1033A0000020024070B50D4D04464FF47A71287824
:1033B000B1FBF0F00A490968B1FBF0F000F0B8FE8B
:1033C00048B9102C07D200222146501E00F02EF8DA
:1033D00000206C6070BD012070BD00000000002066
:1033E0000C000020094808B5816941F001018161A4
:1033F000816901F001010091C16941F08051C16111
:10340000C06900F08050009008BD0000001002402C
:10341000002809DB00F01F020121914040098000D3
:1034200000F1E020C0F8001170470000F0B40E4B2E
:103430001B680C46C3F30223C3F10705042D00D912
:103440000425191D072901D2002300E0DB1E0126F7
:1034500006FA05F1491E214099409E40761E16400D
:103460003143F0BC02F035BB0CED00E0064900F042
:10347000070208684FF6FF03184040EA0220034A9B
:1034800010430860704700000CED00E00000FA05F2
:10349000BFF34F8F05480168054A01F4E06111430D
:1034A0000160BFF34F8F00BFFDE700000CED00E0AF
:1034B0000400FA052DE9F84F0546006800266E4C19
:1034C000C0036ED5E069C00008D4E06940F08050C8
:1034D000E061E069012600F08050009067480168D3
:1034E000C90512D40168804641F480710160FFF77C
:1034F00039FF074605E000BFFFF734FFC01B642813
:1035000035D8D8F80000C005F6D5206A10F4407010
:1035100053D0A98801F4407181424ED0206A4FF403
:10352000803191FAA1F2B2FA82F29700544A4FF038
:103530000108174420F44070C7F8008491FAA1F103
:10354000B1FA81F102EB81010023C1F8003420625D
:10355000C00732D0FFF706FF074641F2883A4FF026
:10356000020907E0FFF7FEFEC11B514502D9032007
:10357000BDE8F88F99FAA9F1B1FA81F141F0400163
:103580004846B8EB511F01D121680CE090FAA0F138
:10359000B1FA81F141F04001B0EB511F02D1216A33
:1035A00001E015E0616A99FAA9F0B0FA80F000F044
:1035B0001F0008FA00F21142D4D0206A696820F492
:1035C0004070084320621EB1E06920F08050E06145
:1035D0002878C00705D0206BA96820F003000843B5
:1035E00020632878800705D5206BE96820F44030F7
:1035F000084320632878400705D5206B296920F40B
:103600004020084320632878800605D5206B69692F
:1036100020F01000084320632868800305D5606807
:10362000A96A20F48000084360602878400605D528
:10363000206BA96920F02000084320632878000649
:1036400005D56068E96920F4404008436060288837
:10365000000505D56068296A20F07840084360605D
:103660002888400505D5206B696A20F04000084392
:10367000206300207CE70000001002400070004042
:10368000000042422DE9F0470F46050069D04A4E3E
:10369000306800F00700B84209D2306820F0070017
:1036A00038433060306800F00700B84259D12878BC
:1036B000424C800705D56068A96820F0F0000843F7
:1036C00060602878C0073DD06968012001290DD0CD
:1036D000022923D05FF0020393FAA3F2B2FA82F236
:1036E00042F02002520904D0226803E04FF4003374
:1036F000F2E7626A93FAA3F3B3FA83F303F01F03CA
:10370000984002422DD0606820F0030008436060BA
:10371000FFF728FE804641F288390CE04FF0007335
:10372000DAE700BFFFF71EFEA0EB0801494502D90A
:103730000320BDE8F0876068696800F00C00B0EB1A
:10374000810FEFD1306800F00700B8420BD9306824
:1037500020F0070038433060306800F00700B842BE
:1037600001D00120E5E72878400705D56068E968C1
:1037700020F4E060084360602878000706D56068A0
:10378000296920F4605040EAC100606000F04EF802
:103790006168F02292FAA2F201F0F001B2FA82F22C
:1037A000D140074A515CC840064908600648006895
:1037B000FFF7F8FD0020BCE70020024000100240A7
:1037C000428200080C00002004000020084809493B
:1037D000006849684FF4E06292FAA2F201F4E061F5
:1037E000B2FA82F2D140044A515CC84070470000EE
:1037F0000C000020001002405282000808480949CD
:10380000006849684FF4605292FAA2F201F46051E4
:10381000B2FA82F2D140044A515CC84070470000BD
:103820000C0000200010024052820008174A10B518
:103830005168174801F00C03042B02D0082B01D06B
:10384000401010BD4FF4701494FAA4F401F47013F6
:10385000B4FA84F4E3400F4CD26AE45C0F2393FA89
:10386000A3F302F00F02B3FA83F3DA40094B1033EB
:10387000C9039A5C06D500231946FCF74BFDA0FB53
:10388000040110BD0448A4FB000110BD001002405B
:103890000024F4002282000800093D002DE9F84FC1
:1038A000050071D02878FC4EC0074FF0010425D0E8
:1038B00070686704C0F38100012807D07068C0F306
:1038C000810002281BD17068C00318D597FAA7F0B1
:1038D000B0FA80F040F02000400901D0306800E0EC
:1038E000706A97FAA7F1B1FA81F101F01F0104FAA9
:1038F00001F1084265D068680028D2D061E06868AC
:10390000B0F5803F0BD010B1B0F5A02F17D03068C4
:1039100020F480303060306820F4802002E030688D
:1039200040F480303060F06AA96820F00F0008434E
:10393000F062686820B3FFF715FD80460AE0306842
:1039400040F480203060EAE7FFF70CFDA0EB0800B0
:10395000642871D897FAA7F0B0FA80F040F0200000
:10396000400901D0306800E0706A97FAA7F1B1FA17
:1039700081F101F01F0104FA01F10842E4D020E0D6
:10398000FFF7F0FC804607E0C2E000BFFFF7EAFC6B
:10399000A0EB08006428DCD897FAA7F0B0FA80F012
:1039A00040F02000400901D0306800E0706A97FACA
:1039B000A7F1B1FA81F101F01F0104FA01F1084207
:1039C000E4D12878DFF8D48280074FF0000A4FF066
:1039D000020730D570684FF0F80B10F00C0F07D0CD
:1039E0007068C0F38100022827D17068C00324D416
:1039F00097FAA7F0B0FA80F040F02000400901D01B
:103A0000306800E0706A97FAA7F1B1FA81F101F02D
:103A10001F0104FA01F1084202D02869012877D178
:103A200030689BFAABF220F0F8016869B2FA82F2D2
:103A30009040014331605AE064E1286988B394FA08
:103A4000A4F0B0FA80F048F82040FFF78BFC8146E4
:103A500006E000BFFFF786FCA0EB090002289AD819
:103A600097FAA7F0B0FA80F040F02000400901D0AA
:103A7000306800E0706A97FAA7F1B1FA81F101F0BD
:103A80001F0104FA01F10842E4D030689BFAABF25E
:103A90006969B2FA82F220F0F80091400843306080
:103AA00025E0FFE794FAA4F0B0FA80F048F820A0EF
:103AB000FFF758FC814605E0FFF754FCA0EB090036
:103AC0000228CCD897FAA7F0B0FA80F040F0200096
:103AD000400901D0306800E0706A97FAA7F1B1FAA6
:103AE00081F101F01F0104FA01F10842E4D12878C4
:103AF00000076CD5A869A8B394FAA4F0B0FA80F0D6
:103B000008EB8000C0F88044FFF72CFC814607E0FA
:103B1000A4E100BFFFF726FCA0EB090002289ED815
:103B200097FAA7F0B0FA80F040F06000B4EB501FB5
:103B300001D130680BE097FAA7F0B0FA80F040F0BE
:103B40006000B7EB501F01D1306A00E0706A97FA4D
:103B5000A7F1B1FA81F101F01F0104FA01F210425C
:103B6000D8D034E0FFE794FAA4F1B1FA81F108EB80
:103B70008101C1F880A4FFF7F5FB814606E000BF94
:103B8000FFF7F0FBA0EB090002289AD897FAA7F0FC
:103B9000B0FA80F040F06000B4EB501F01D1306803
:103BA0000BE097FAA7F0B0FA80F040F06000B7EBB6
:103BB000501F01D1306A00E0706A97FAA7F1B1FA9C
:103BC00081F101F01F0104FA01F21042D8D12878E6
:103BD000400768D5F0694FF00009C00009D4F069CA
:103BE00040F08050F061F0694FF0010900F0805022
:103BF00000902B480168C90512D4016841F4807116
:103C00000160FFF7AFFB834606E000BFFFF7AAFBAA
:103C1000A0EB0B00642875D821480068C005F5D5D5
:103C2000E86801280AD008B1052811D0306A20F0D0
:103C300001003062306A20F0040002E0306A40F097
:103C400001003062E86868B3FFF78CFB83460DE043
:103C5000306A40F004003062F0E700BFFFF782FBFB
:103C6000A0EB0B0141F2883081424BD897FAA7F0C4
:103C7000B0FA80F040F04000B4EB501F01D1306842
:103C800013E097FAA7F0B0FA80F040F04000B7EBED
:103C9000501F09D1306A08E0001002400000424283
:103CA000007000400CE040E0706A97FAA7F1B1FAAA
:103CB00081F101F01F0104FA01F21042CED02DE093
:103CC000FFF750FB834607E0FFF74CFBA0EB0B012F
:103CD00041F28830814215D897FAA7F0B0FA80F007
:103CE00040F04000B4EB501F01D130680CE097FA6F
:103CF000A7F0B0FA80F040F04000B7EB501F02D1BF
:103D0000306A01E083E0706A97FAA7F1B1FA81F1B5
:103D100001F01F0104FA01F21042D5D1B9F1000FF0
:103D200003D0F06920F08050F061E86980B37168D9
:103D3000C1F38101022977D04FF080714F00022832
:103D4000504609D091FAA1F1B1FA81F148F8210069
:103D5000FFF708FB05465DE0894691FAA1F1B1FA4B
:103D600081F1C24648F82100FFF7FCFA804605E0E1
:103D7000FFF7F8FAA0EB0800022848D897FAA7F056
:103D8000B0FA80F040F02000400902D0306801E035
:103D900066E0706A97FAA7F1B1FA81F101F01F01AC
:103DA00004FA01F10842E3D1D5E90810084371682B
:103DB00021F474110843706099FAA9F0B0FA80F008
:103DC0004AF82040FFF7CEFA054604E0FFF7CAFAAA
:103DD000401B02281BD897FAA7F0B0FA80F040F0F9
:103DE0002000400901D0306800E0706A97FAA7F11E
:103DF000B1FA81F101F01F0104FA01F10842E5D0A6
:103E00002EE000BFFFF7AEFA401B022802D90320C4
:103E1000BDE8F88F97FAA7F0B0FA80F040F02000E4
:103E2000400902D0306801E00BE0706A97FAA7F110
:103E3000B1FA81F101F01F0104FA01F10842E1D168
:103E40000EE00128E4D070682A6A00F480319142C3
:103E500004D1696A00F47010884201D00120D7E7CC
:103E60000020D5E77047000038B5016804464A686D
:103E70008868C043430606D5C30704D1D3435B0615
:103E800001D4E16C05E0830708D4D3431B0605D4B5
:103E9000216D01B02046BDE830400847830603D5B8
:103EA000430601D5C30551D4D3439B064ED44306E4
:103EB0000AD494F85D30032B49D0236E43F00403F9
:103EC0002366CB688B680093830609D4236E43F086
:103ED000010323668B6800930B6823F040030B609B
:103EE000C00506D4206E40F0080020662068806877
:103EF0000090206E002829D02068416821F0E00160
:103F00004160012084F85D00900701D4D00722D0E1
:103F10002068416821F003014160114DA06D40B15E
:103F20004563A06DFFF74DF818B1206E40F04000DA
:103F30002066606D002809D04563606DFFF741F889
:103F4000002803D0206E40F04000206638BDC868CD
:103F50008868009038BD2046FFF784FF38BD000018
:103F60001951000870B5040009D0606A002540B1FD
:103F700025616561A56294F85D0040B10CE0012007
:103F800070BD6068B0F5827FF4D0E561F2E784F837
:103F90005C50204600F05CF8022084F85D00206848
:103FA000016821F040010160E1684FF4E062914254
:103FB00001D9002001E04FF48050B1F5706F02D0BC
:103FC000914200D0A562A188228901F4827102F495
:103FD00004421143227C02F002021143227D02F0CE
:103FE00001021143228B02F400721143227F02F07E
:103FF0003802114394F8202002F080021143228DF0
:1040000002F40052114322681160A169042202EAFD
:10401000114194F8242000F4805002F01002114362
:1040200094F8342002F008021143A28902F470626D
:1040300011430143206841602068C16921F4006197
:10404000C1612566012084F85D00002070BD00007C
:10405000F0B587B0044614216846FCF79AFC2E4A56
:10406000216800252D4802240326052791421ED1F0
:10407000816941F480518161816901F48051059128
:10408000416941F4002141614069694600F4002022
:1040900005904FF470708DE8F1002148FFF768F843
:1040A000002211462320FFF7C1F9232030E01D4AEA
:1040B00091422FD1C16941F48041C161C16901F4CC
:1040C00080410591416941F480214161416901F4D8
:1040D00080210591416941F480114161406969463F
:1040E00000F4801005904FF442408DE8F1000E4836
:1040F000FFF73EF84FF480708DE8F10069460B48F9
:10410000FFF736F8002211462420FFF78FF924200C
:10411000FFF77EF907B0F0BD00300140001002400B
:10412000000800480038004000040048000C004827
:1041300010B5401EB0F1807F01D3012010BD4FF0BB
:10414000E02460610F21601701F0C3FC0020A06132
:1041500007202061002010BD70B590F83C20012A96
:104160002FD0012480F83C40022280F83D200368D3
:104170005A689D6822F070060A6832435A600268E5
:10418000B2F1804F11D0104B9A420ED00F4B9A4291
:104190000BD00F4B9A4208D00E4B9A4205D00E4BD3
:1041A0009A4202D00D4B9A4204D1496825F080030F
:1041B0001943916080F83D40002180F83C1008468A
:1041C00070BD022070BD00000004004000080040E7
:1041D000000C00400018004000400140005C01401D
:1041E00010B586B0044614216846FCF7D2FB0D4991
:1041F0002068884214D10C48416941F40021416192
:104200004069002100F4002005900F20009002205A
:10421000CDE90101CDE9031069460448FEF7A8FF86
:1042200006B010BD000C004000100240000800481D
:1042300070B5044690F83C0000260D4601280FD0CA
:10424000012084F83C006AB1042A1DD0082A2FD02E
:104250000C2A3FD00126002084F83C00304670BD77
:10426000022070BD206801F013F82068816941F0D8
:10427000080181612068816921F004018161206861
:1042800081692A69114311E0206801F039F820683A
:10429000816941F4006181612068816921F4806154
:1042A0008161206881692A6941EA02218161D2E73E
:1042B000206801F055F82068C16941F00801C1612A
:1042C0002068C16921F00401C1612068C1692A69BF
:1042D000114311E0206801F05AF82068C16941F4E7
:1042E0000061C1612068C16921F48061C1612068F9
:1042F000C1692A6941EA0221C161ACE710B5040035
:1043000003D094F83D0010B107E0012010BD00205B
:1043100084F83C00204600F01FF8022084F83D009D
:10432000211D206800F050FF012084F8480084F827
:104330003E0084F83F0084F8400084F8410084F88F
:10434000440084F8450084F8460084F8470084F867
:104350003D00002010BD000008B5006806498842F5
:1043600008D10648C16941F00801C161C06900F087
:104370000800009008BD0000000C00400010024042
:10438000704770477047000070B50446216851E8D7
:10439000000F20F4907041E80002002AF6D1206856
:1043A000083050E8001F21F0010140E80012002A07
:1043B000F5D1206E012808D1206850E8001F21F0B7
:1043C000100140E80012002AF6D1216888684FF0F9
:1043D0000F0245064FF000004FF0200328D521685A
:1043E000083151E8005F25F0400541E80056002EF5
:1043F000F5D1616F49B111484863606FFEF7E1FD87
:10440000A0B1606F416B884710E0A4F85A00606566
:1044100021680A6221688A6942F00802C1F81820FE
:10442000C4F8803020662046FFF7ACFF002070BD46
:10443000A4F85A0060650A62F2E7000043550008DC
:10444000704700002DE9F04102680446D069116808
:10445000936840F60F0528424FF000054FF0020622
:1044600005D187067ED58F067CD5A16E2AE1DFF8BF
:1044700084C203F0010701EA0C0C57EA0C0C71D05E
:104480005FEAC07C0CD05FEAC15C09D54FF0010C3B
:10449000C2F820C0D4F8842042F00102C4F884207D
:1044A000820709D5DA0707D022681662D4F884207B
:1044B00042F00402C4F8842042070AD5DA0708D083
:1044C000236804221A62D4F8842042F00202C4F85D
:1044D000842002070CD501F020023A4308D023685B
:1044E00008221A62D4F8842042F00802C4F884201A
:1044F00002050BD54A0109D523684FF400621A6200
:10450000D4F8842042F02002C4F88420D4F8842017
:10451000002A36D0800605D5880603D5A16E09B1DC
:1045200020468847D4F8840021688968490602D467
:1045300010F0280F27D0204601F017F82068806877
:1045400040061BD52068083050E8001F21F04001CC
:1045500040E80012002AF5D1606F78B166494163E6
:10456000606F00E015E0FEF72CFD002809D0606FB9
:10457000416B00E02046BDE8F04108472046FFF7C8
:104580005FFFBDE8F0812046FFF75AFFC4F8845072
:10459000F7E7D4F860C02027BCF1010F7DD15FEAB6
:1045A000C06C7ED55FEAC16C7BD51020106220689C
:1045B0008068400642D5616F086840680004000CBE
:1045C000DFD0B4F858208242DBD9A4F85A008869B9
:1045D00020282BD0216851E8000F20F4807041E89A
:1045E0000002002AF6D12068083050E8001F21F0B0
:1045F000010140E80012002AF5D12068083050E897
:10460000001F21F0400140E80012002AF5D1C4F853
:1046100080702566206850E8001F21F0100140E8F6
:104620000012002AF6D1606FFEF7A8FC6666B4F8A7
:104630005800B4F85A10401A81B22CE0B4F858006F
:10464000B4F85A10401A81B2B4F85A00002898D031
:10465000002996D0226852E8000F20F4907042E8BA
:104660000003002BF6D12068083050E8002F22F01C
:10467000010240E80023002BF5D1C4F880702566C4
:10468000A566206850E8002F22F0100240E80023C1
:10469000002BF6D16666204600E002E0FFF770FED0
:1046A0006FE7C60209D55B0207D54FF48010106290
:1046B0002046BDE8F041FFF764BE020606D50A06B3
:1046C00004D5E16E00297FF455AF5AE74006E7D5DF
:1046D0004806E5D52046026852E8001F21F0400157
:1046E00042E80013002BF6D1C767C56600F012F947
:1046F00047E70000200100042F55000810B5040012
:1047000002D0E06F10B107E0012010BD002084F856
:104710007800204600F026F82420E0672068016831
:1047200021F001010160204601F004F80128ECD0DD
:10473000606A10B1204600F042FE2068416821F412
:10474000904141602068816821F02A0181602068E1
:10475000016841F0010101602046BDE8104000F011
:1047600092BE000070B586B0044614216846FCF77E
:1047700010F93B4E256800213A4802220323072402
:10478000B54221D1856945F480458561856905F487
:1047900080450595456945F400354561406902ADA0
:1047A00000F40030059085E81A005802CDE90002B7
:1047B00069464FF09040FEF7DBFC002211462520B1
:1047C000FEF734FE252022E0274EB54223D1C569ED
:1047D00045F40035C561C56905F4003505954569A1
:1047E00045F480254561406902AD00F480200590C4
:1047F00085E81A001820CDE9000269461B48FEF73B
:10480000B7FC002211462620FEF710FE2620FEF7F8
:10481000FFFD06B070BD164EB542FAD1C56945F42C
:104820008025C561C56905F480250595456945F470
:1048300000254561406902AD00F40020059085E83F
:104840001A004FF44060CDE9000269460948FEF7BE
:104850008FFC002211462720FEF7E8FD2720D6E72F
:1048600000380140001002400044004000040048AD
:10487000004800400008004830B4D0F88030202BB9
:1048800002D0022030BC704791B18AB10023036688
:1048900003685B681B0208D5046854E8003F43F0D6
:1048A000806344E80035002DF6D130BC01F000B83B
:1048B0000120E7E770470000C36F202B01D00220E2
:1048C000704781B17AB1C164A0F85020A0F852209D
:1048D0000021C166C0F884102121C1678168B1F54B
:1048E000805F02D003E001207047016961B1074990
:1048F000C166026852E8001F41F0800142E80013DF
:10490000002BF6D1002070470149F1E7A5590008B6
:10491000555900080749097800290AD00168064856
:1049200002681268914204D130F84E1F41F0010133
:104930000180704710000020980A0020FEE7000068
:1049400070B504461546C4E90012084601F088F91E
:10495000284601F085F90448E0600448A060044856
:1049600060610448206170BD716A0008916A0008A6
:10497000816A0008A16A000810B504464068012257
:1049800081880068FEF7E9FC2068012281880068C0
:10499000FEF7E3FC6068002281880068FEF7DDFC1A
:1049A000022000F0A8F82068002281880068FEF745
:1049B000D4FC6068012281880068BDE81040FEF7E1
:1049C000CCBC70B50646406800240122818800688E
:1049D000FEF7C3FC00253068012281880068FEF7DD
:1049E000BCFC032000F087F86006040E7068818824
:1049F0000068FEF7A5FC012801D144F001043068ED
:104A0000002281880068FEF7A8FC052000F073F8FA
:104A10006D1CEDB2082DDED3204670BD10B50446E6
:104A20000068002281880068FEF797FC6068002219
:104A300081880068FEF791FC022000F05CF8206895
:104A4000012281880068FEF788FC60680122818865
:104A50000068BDE81040FEF780BC70B505460068F0
:104A6000012281880068FEF778FC052000F043F8F9
:104A70000024686881880068FEF762FC60B1641CED
:104A80000126E4B2052CF4D9286800228188006848
:104A9000FEF763FC304670BD0026F5E770B50446AE
:104AA0000E460025300660688188006801D5012225
:104AB00000E00022FEF751FC7006060E206801227D
:104AC00081880068FEF749FC042000F014F8206893
:104AD000002281880068FEF740FC6068012281881E
:104AE0000068FEF73AFC022000F005F86D1CEDB2FC
:104AF000082DD7D370BD01E0401EC0B20028FBD105
:104B00007047000070B50E46154604463421FBF789
:104B100040FF266025714FF0FF30A061E06104A1E5
:104B2000601DFBF7C1FD044860630448A06370BDCD
:104B3000696E7075740000001B6C0008956C0008AD
:104B4000FEB5002534480095019532490295016073
:104B500089158160057301240475082606614FF4E8
:104B600060214560C0E90641FDF7D4FF08B172B687
:104B7000FEE7CDE900540725694627480295FDF771
:104B800049FF08B172B6FEE7009402246946224844
:104B90000194FDF73FFF08B172B6FEE700940324CD
:104BA00069461D480194FDF735FF08B172B6FEE76E
:104BB00000940424694618480194FDF72BFF08B1BE
:104BC00072B6FEE700940524694613480194FDF788
:104BD00021FF08B172B6FEE70094062469460E482C
:104BE0000194FDF717FF08B172B6FEE769460A485F
:104BF000CDE90045FDF70EFF08B172B6FEE7CDE93D
:104C0000005669460448FDF705FF002801D072B63A
:104C1000FEE7FEBD00240140940000202DE9F04F86
:104C200087B014216846FBF7B4FE5548416941F44A
:104C300000214161416901F400210591416941F47C
:104C400000314161416901F400310591416941F44C
:104C500080214161416901F480210591416941F45C
:104C600000114161416901F400110591416941F46C
:104C700080114161416901F480110591416941F45C
:104C8000800141614069DFF8FC9000F480004FF43E
:104C900000540590002221464846FEF75EFBDFF8EF
:104CA000E8A040F2E316002231465046FEF755FBDD
:104CB000DFF8D8B04FF44077002239465846FEF767
:104CC0004CFB0022C0213248FEF747FB4FF400485E
:104CD000002241464FF09040FEF73FFB0125CDE911
:104CE000004500240294694648460394FEF740FAC2
:104CF00041F23000CDE90004694648460294FEF7CF
:104D000037FA0096CDE90154694650460394FEF700
:104D10002FFA0426CDE90064694650460294FEF756
:104D200027FA0097CDE90154694658460394FEF7E7
:104D30001FFA2802CDE9000469464FF09040029422
:104D4000FEF716FAC02000901120CDE90104694653
:104D50000F480394FEF70CFACDF80080CDE901541A
:104D600069464FF090400394FEF702FACDE90064E3
:104D7000694608480294FEF7FBF907B0BDE8F08FDA
:104D800000100240000800480004004800100048DD
:104D900000140048000C0048114810B50F4901608C
:104DA0004FF48271416000214FF4E062C0E90212C9
:104DB0004FF480220161C0E905121822C0E90721E1
:104DC00007224162C0E90A12016308214163FFF72B
:104DD000C9F8002801D072B6FEE710BD00300140CE
:104DE000E8000020114810B50F4901604FF48271AE
:104DF000416000214FF4E062C0E902124FF48022CA
:104E00000161C0E905121022C0E9072107224162B1
:104E1000C0E90A12016308214163FFF7A3F80028E3
:104E200001D072B6FEE710BD003800404C010020F2
:104E300010B58AB0002407941C2168460894FBF73B
:104E4000A8FD21481F49C0E90014611EC0E90241C4
:104E500004618461FFF752FA08B172B6FEE7079465
:104E600007A919480894FFF777F908B172B6FEE769
:104E70006020CDE90004029400226946124804949F
:104E8000FFF7D6F908B172B6FEE7042269460E486C
:104E9000FFF7CEF908B172B6FEE7082269460A4864
:104EA000FFF7C6F908B172B6FEE70C22694606485C
:104EB000FFF7BEF908B172B6FEE70348FFF790F9B5
:104EC0000AB010BD000C0040B00100200C4810B525
:104ED0000A4901604FF4E1314160002181600C22F8
:104EE000C160C0E904128161C16101624162FFF7E2
:104EF00005FC002801D072B6FEE710BD0038014065
:104F0000FC0100200C4810B50A4901604FF4E13162
:104F10004160002181600C22C160C0E904128161FE
:104F2000C16101624162FFF7E9FB002801D072B65E
:104F3000FEE710BD00440040840200200C4810B57C
:104F40000A4901604FF4E1314160002181600C2287
:104F5000C160C0E904128161C16101624162FFF771
:104F6000CDFB002801D072B6FEE710BD004800401E
:104F70000C030020FEE7FEE77047C0E900130021A4
:104F80000161C0E902210120704770B50E46044658
:104F9000056800F057F808B1002070BD6168E0684E
:104FA000491E0840A268314600FB0250FBF716FC80
:104FB000E068401CE060012070BD2DE9F04790469C
:104FC00089460546076800F03DF810B10020BDE8AD
:104FD000F087E8682969411A6868421AE968431E3F
:104FE000144619400B19834200D3441A161B44453A
:104FF00000DB4446A8EB0400864200DB0646AA68B4
:1050000001FB027062434946FBF7E8FBE868204475
:10501000E8606968AA68491E0840296800FB021018
:1050200004FB02917243FBF7D9FBE8683044E86067
:10503000A019CCE7C1680069814201D10120704705
:1050400000207047C16802694068891A814201DB0B
:10505000012070470020704770B50E460446056871
:10506000FFF7E8FF08B1002070BD61682069491EA4
:10507000A268084000FB02513046FBF7AFFB2069F5
:10508000401C2061012070BD2DE9F0479046894603
:1050900005460768FFF7CEFF10B10020BDE8F08796
:1050A000E86829696A68401A531E044619400B19BA
:1050B000934200D3541A061B444500DB4446A8EB38
:1050C0000400864200DB0646AA68484601FB0271DE
:1050D0006243FBF783FB2869204428616968AA685A
:1050E000491E0840296800FB021104FB029072432C
:1050F000FBF774FB286930442861A019CEE7000053
:105100000148FEF7B1BE0000E80000200148FEF7AC
:10511000ABBE00004C01002010B5406A0021A0F891
:105120004610C187FEF79EFE10BD704710B5FEF712
:105130001FF9BDE8104002F057BE30B59BB02821E2
:105140006846FBF726FC142115A8FBF722FC2C214E
:105150000AA8FBF71EFC02250120049000951020F0
:10516000059000244FF46010CDE90840079568468B
:10517000FEF794FB08B172B6FEE70F20CDE91505E6
:105180004FF48060CDE91740022115A81994FEF76D
:1051900079FA08B172B6FEE787200C940A900D9454
:1051A0000E9411940AA8FEF785F9002801D072B672
:1051B000FEE71BB030BD00000248016841F47001F9
:1051C0000160704788ED00E02DE9F04702684FF07C
:1051D000804A254D254E264FDFF898C0264B274C98
:1051E000DFF89C90504507D0A84205D0B04203D0CC
:1051F000B84201D0604506D122F070084A68504597
:1052000042EA080216D0A84214D0B04212D0B842E6
:1052100010D01C4DA8420DD01B4DA8420AD01B4DEA
:10522000A84207D0984205D0A04203D0484501D0FB
:10523000604503D122F44075CA682A434D6922F0C3
:1052400080022A4302608A68C2620A6882629842C7
:1052500003D0A04201D0484501D109690163012171
:105260004161BDE8F08700000004004000080040F4
:10527000000C0040005C014000400140004401403F
:105280000048014000180040001C00400020004081
:10529000F0B5026A22F001020262036A4268846980
:1052A000154E24F073050C68144F2C4323F00205AF
:1052B0008B682B430F4DA84203D0B04201D0B842B7
:1052C00006D123F0080CCB6843EA0C0323F0040357
:1052D000A84203D0B04201D0B84205D14D6922F4B2
:1052E000407215438A692A43426084614968416378
:1052F0000362F0BD0040014000440140004801400D
:1053000030B5026A22F010020262046A42688369C0
:105310000D6823F4E64343EA05238D6824F0200456
:1053200044EA05140B4DA84205D00B4DA84202D00B
:105330000A4DA84207D14D6922F4806242EA8502F3
:105340008D6942EA85024260836149688163046233
:1053500030BD0000004001400044014000480140D1
:1053600030B5026A22F480720262046A4368C2693C
:1053700024F4007422F073050A682A438D684360A0
:1053800044EA0524C2614968C163046230BD30B596
:10539000026A22F480520262046A4268C3690D689C
:1053A00023F4E64343EA05238D6824F4005444EAD9
:1053B00005344260C36149680164046230BD90F8FD
:1053C0002410C90706D001684A68836A22F40032B3
:1053D0001A434A6090F82410890706D501684A6884
:1053E000C36A22F480321A434A6090F824104907B5
:1053F00006D501684A68036B22F480221A434A608A
:1054000090F82410090706D501684A68436B22F416
:1054100000421A434A6090F82410C90606D5016874
:105420008A68836B22F480521A438A6090F82410B1
:10543000890606D501688A68C36B22F400521A43B4
:105440008A6090F82410490611D501684A68036CF7
:1054500022F480121A434A60016CB1F5801F06D114
:1054600001684A68436C22F4C0021A434A6090F80B
:105470002410090606D501684A68806C22F40022CF
:1054800002434A6070472DE9F84300260446C0F8FD
:105490008460FDF767FF8046206800684FF02005B4
:1054A00000076FF07E4712D54346002229042046AC
:1054B000009700F09DFA50B1216851E8000F20F0EC
:1054C000800041E80002002AF6D1E56721E020686B
:1054D0000068400722D5434600224FF48001204651
:1054E000009700F085FAC8B1216851E8000F20F458
:1054F000907041E80002002AF6D12068083050E898
:10550000001F21F0010140E80012002AF5D1C4F883
:10551000805084F878600320BDE8F883E567C4F81C
:10552000805044F8606F666026760020F4E710B57E
:10553000406A0021A0F85A10A0F85210FEF780FF30
:1055400010BD10B5406A0021A0F85A1003680F2260
:105550001A620268936943F0080393612022C0F83D
:1055600080200166FEF70EFF10BD016851E8002F94
:1055700022F4907241E80023002BF6D10168083133
:1055800051E8002F22F0010241E80023002BF5D161
:10559000016E012908D1026852E8001F21F01001B4
:1055A00042E80013002BF6D12021C0F88010002122
:1055B00001668166704710B5B0F85C20D0F8803085
:1055C0000168222B04D0886940F00800886110BD72
:1055D000898C436D11401980416D891C4165B0F87B
:1055E0005A10491EA0F85A10B0F85A100029EED1EE
:1055F000026852E8001F21F4907142E80013002B6A
:10560000F6D10168083151E8002F22F0010241E88B
:105610000023002BF5D12021C0F8801000218166E5
:10562000416602685268120208D5036853E8002FE9
:1056300022F0806243E80024002CF6D1026E012A99
:1056400002D0FFF737F910BD0166026852E8001F6B
:1056500021F0100142E80013002BF6D10168CA695D
:10566000D243D20601D410220A62B0F85810FEF7D5
:1056700087FE10BD10B5B0F85C20D0F8803001680E
:10568000222B04D0886940F00800886110BD898C05
:105690001140426D1170416D491C4165B0F85A10BE
:1056A000491EA0F85A10B0F85A100029EED102682D
:1056B00052E8001F21F4907142E80013002BF6D14C
:1056C0000168083151E8002F22F0010241E800236F
:1056D000002BF5D12021C0F88010002181664166A1
:1056E00002685268120208D5036853E8002F22F0BE
:1056F000806243E80024002CF6D1026E012A02D019
:10570000FFF7D8F810BD0166026852E8001F21F0CB
:10571000100142E80013002BF6D10168CA69D24398
:10572000D20601D410220A62B0F85810FEF728FE03
:1057300010BD000070B5044680682169E269084325
:10574000616900251143084321680A6849F20C6326
:105750009A4302430A6020684168E26821F440519C
:1057600011434160A169206A084321688A6822F4D4
:10577000306202438A60494A2068494990420CD10C
:10578000086B10F0030006D001283DD002283DD060
:10579000032823D136E0012121E0424A90420DD175
:1057A000086B10F440302BD0B0F5803F2CD0B0F512
:1057B000003F2BD0B0F5403F10D123E03A4A904251
:1057C0000CD1086B10F440201AD0B0F5802F1BD0FC
:1057D000B0F5002F1AD0B0F5402F13D01021E36997
:1057E0004FF40040314A4FF6EF7683422ED109291B
:1057F00049D2DFE801F00D10134815484848180059
:105800000021ECE70221EAE70421E8E70821E6E7C6
:10581000FDF7DCFF06E0FDF7F1FF03E0104602E0D4
:10582000FEF704F880B34100606801EB5001B1FB62
:10583000F0F0A0F11001B14225D84FF6F07101400F
:10584000C0F3420001432068C16021E009291AD257
:10585000DFE801F005080B190D1919191000FDF703
:10586000B5FF06E0FDF7CAFF03E0104602E0FDF7D2
:10587000DDFF48B1616800EB5100B0FBF1F0A0F131
:105880001001B14201D9012502E0216880B2C8604F
:105890000020A066E066284670BD00000038014088
:1058A00000100240004400400048004000127A000E
:1058B00010B54165A0F85820A0F85A200021816653
:1058C00082684FF48054FF23A24204D102696ABB6C
:1058D00040F2FF1227E01AB3A0F85C10C0F8841061
:1058E0002221C0F880100168083151E8002F42F0F1
:1058F000010241E80023002BF5D18168A14201D1CA
:105900000169B1B1114981660169A1B1026852E82A
:10591000001F41F4907142E80013002BF6D113E010
:1059200002691AB17F22A0F85C20D7E7A0F85C30AA
:10593000D4E707498166026852E8001F41F0200160
:1059400042E80013002BF6D1002010BD7556000868
:10595000B7550008C16F212910D1B0F8521071B1AC
:10596000C16C02680988C1F308011185C16C891CEA
:10597000C164B0F85210491EA0F852107047026876
:1059800052E8001F21F0800142E80013002BF6D1FD
:10599000026852E8001F41F0400142E80013002B6A
:1059A000F6D17047C16F21290ED1B0F8521061B104
:1059B000C16C026809781185C16C491CC164B0F8DA
:1059C0005210491EA0F852107047016851E8002F8C
:1059D00022F0800241E80023002BF6D1026852E851
:1059E000001F41F0400142E80013002BF6D1704740
:1059F0002DE9F047994617460E4604464FF0000839
:105A0000089D2FE0681C2DD0FDF7ACFCA0EB090031
:105A1000A84214D89DB120680168490722D5C16900
:105A2000C94309070DD4082505622046FFF79DFDEF
:105A3000C4F8845084F878800120BDE8F087032002
:105A4000FBE7C069C04300050CD421684FF4006037
:105A500008622046FFF789FD2020C4F8840084F8FE
:105A60007880ECE72068C06936EA000004D00020A6
:105A7000B842C7D00020E0E70120F9E70148FEF76F
:105A8000E1BC0000FC0100200148FEF7DBBC000087
:105A9000840200200148FEF7D5BC00000C03002062
:105AA000FEE703B401984100009850EAC12018BFF6
:105AB00004204A0D18BF40F0010040F2FF72B2EB23
:105AC000515F08BF40F00200012808BF052002B066
:105AD00070470907090E002804DB00F1E02080F878
